:020000040000fa
:080000000002040000000000f2
:020000040000fa
:040008001a030000d7
:020000040000fa
:04000c005c03000091
:020000040000fa
:04001000bc0300002d
:020000040000fa
:040014003a030000ab
:020000040000fa
:040018007c03000065
:020000040000fa
:04001c009c03000041
:020000040000fa
:04002000dc030000fd
:020000040000fa
:0400240008040000cc
:020000040000fa
:0400280008040000c8
:020000040000fa
:04002c0008040000c4
:020000040000fa
:0400300008040000c0
:020000040000fa
:0400340008040000bc
:020000040000fa
:0400380008040000b8
:020000040000fa
:04003c0008040000b4
:020000040000fa
:0400400008040000b0
:020000040000fa
:0400440008040000ac
:020000040000fa
:0400480008040000a8
:020000040000fa
:04004c0008040000a4
:020000040000fa
:0400500008040000a0
:020000040000fa
:04005400080400009c
:020000040000fa
:040058000804000098
:020000040000fa
:04005c000804000094
:020000040000fa
:040060000804000090
:020000040000fa
:04006400080400008c
:020000040000fa
:040068000804000088
:020000040000fa
:04006c000804000084
:020000040000fa
:040070000804000080
:020000040000fa
:04007400080400007c
:020000040000fa
:040078000804000078
:020000040000fa
:04007c000804000074
:020000040000fa
:040080000804000070
:020000040000fa
:04008400080400006c
:020000040000fa
:040088000804000068
:020000040000fa
:04008c000804000064
:020000040000fa
:040090000804000060
:020000040000fa
:04009400080400005c
:020000040000fa
:040098000804000058
:020000040000fa
:04009c000804000054
:020000040000fa
:0400a0000804000050
:020000040000fa
:0400a400080400004c
:020000040000fa
:0400a8000804000048
:020000040000fa
:0400ac000804000044
:020000040000fa
:0400b0000804000040
:020000040000fa
:0400b400080400003c
:020000040000fa
:0400b8000804000038
:020000040000fa
:0400bc000804000034
:020000040000fa
:0400c0000804000030
:020000040000fa
:0400c400080400002c
:020000040000fa
:0400c8000804000028
:020000040000fa
:0400cc000804000024
:020000040000fa
:0400d0000804000020
:020000040000fa
:0400d400080400001c
:020000040000fa
:0400d8000804000018
:020000040000fa
:0400dc000804000014
:020000040000fa
:0400e0000804000010
:020000040000fa
:0400e400080400000c
:020000040000fa
:0400e8000804000008
:020000040000fa
:0400ec000804000004
:020000040000fa
:0400f0000804000000
:020000040000fa
:0400f40008040000fc
:020000040000fa
:0400f80008040000f8
:020000040000fa
:0400fc0008040000f4
:020000040000fa
:0401000008040000ef
:020000040000fa
:0401040008040000eb
:020000040000fa
:0401080008040000e7
:020000040000fa
:04010c0008040000e3
:020000040000fa
:0401100008040000df
:020000040000fa
:0401140008040000db
:020000040000fa
:0401180008040000d7
:020000040000fa
:04011c0008040000d3
:020000040000fa
:0401200008040000cf
:020000040000fa
:0401240008040000cb
:020000040000fa
:0401280008040000c7
:020000040000fa
:04012c0008040000c3
:020000040000fa
:0401300008040000bf
:020000040000fa
:0401340008040000bb
:020000040000fa
:0401380008040000b7
:020000040000fa
:04013c0008040000b3
:020000040000fa
:0401400008040000af
:020000040000fa
:0401440008040000ab
:020000040000fa
:0401480008040000a7
:020000040000fa
:04014c0008040000a3
:020000040000fa
:04015000080400009f
:020000040000fa
:04015400080400009b
:020000040000fa
:040158000804000097
:020000040000fa
:04015c000804000093
:020000040000fa
:04016000080400008f
:020000040000fa
:04016400080400008b
:020000040000fa
:040168000804000087
:020000040000fa
:04016c000804000083
:020000040000fa
:04017000080400007f
:020000040000fa
:04017400080400007b
:020000040000fa
:040178000804000077
:020000040000fa
:04017c000804000073
:020000040000fa
:04018000080400006f
:020000040000fa
:04018400080400006b
:020000040000fa
:040188000804000067
:020000040000fa
:04018c000804000063
:020000040000fa
:04019000080400005f
:020000040000fa
:04019400080400005b
:020000040000fa
:040198000804000057
:020000040000fa
:04019c000804000053
:020000040000fa
:0401a000080400004f
:020000040000fa
:0401a400080400004b
:020000040000fa
:0401a8000804000047
:020000040000fa
:0401ac000804000043
:020000040000fa
:0401b000080400003f
:020000040000fa
:0401b400080400003b
:020000040000fa
:0401b8000804000037
:020000040000fa
:0401bc000804000033
:020000040000fa
:0401c000080400002f
:020000040000fa
:0401c400080400002b
:020000040000fa
:0401c8000804000027
:020000040000fa
:0401cc000804000023
:020000040000fa
:0401d000080400001f
:020000040000fa
:0401d400080400001b
:020000040000fa
:0401d8000804000017
:020000040000fa
:0401dc000804000013
:020000040000fa
:0401e000080400000f
:020000040000fa
:0401e400080400000b
:020000040000fa
:0401e8000804000007
:020000040000fa
:0401ec000804000003
:020000040000fa
:0401f00008040000ff
:020000040000fa
:0401f40008040000fb
:020000040000fa
:0401f80008040000f7
:020000040000fa
:0401fc0008040000f3
:020000040000fa
:0402000008040000ee
:020000040000fa
:0402040008040000ea
:020000040000fa
:0402080008040000e6
:020000040000fa
:04020c0008040000e2
:020000040000fa
:0402100008040000de
:020000040000fa
:0402140008040000da
:020000040000fa
:0402180008040000d6
:020000040000fa
:04021c0008040000d2
:020000040000fa
:0402200008040000ce
:020000040000fa
:0402240008040000ca
:020000040000fa
:0402280008040000c6
:020000040000fa
:04022c0008040000c2
:020000040000fa
:0402300008040000be
:020000040000fa
:0402340008040000ba
:020000040000fa
:0402380008040000b6
:020000040000fa
:04023c0008040000b2
:020000040000fa
:0402400008040000ae
:020000040000fa
:0402440008040000aa
:020000040000fa
:0402480008040000a6
:020000040000fa
:04024c0008040000a2
:020000040000fa
:04025000080400009e
:020000040000fa
:04025400080400009a
:020000040000fa
:040258000804000096
:020000040000fa
:04025c000804000092
:020000040000fa
:04026000080400008e
:020000040000fa
:04026400080400008a
:020000040000fa
:040268000804000086
:020000040000fa
:04026c000804000082
:020000040000fa
:04027000080400007e
:020000040000fa
:04027400080400007a
:020000040000fa
:040278000804000076
:020000040000fa
:04027c000804000072
:020000040000fa
:04028000080400006e
:020000040000fa
:10040000cf4e21000eff27000e01880000000000e3
:10041000000020000000e000020032000001200087
:100420002002880014000700ac0107000000e00073
:1004300003003a00a012260001002000020037004d
:100440000000200001002000810f70000100320038
:100450000f000700000020000000e0000200320052
:100460000000020000000000bc6702000000000065
:100470000040da000000fe00e02d20000000e00057
:1004800002003200002020009001880000000600d9
:10049000a1028800800478000000eb001f003700f4
:1004a000e284440054a0b4009905ba00e2844400f8
:1004b00054a0b4009906ba00e284440054a0b400e9
:1004c0000006eb00476fde00fd07b200ae018800ba
:1004d000636ce10003003a000ad801000000eb0061
:1004e0000e003700606ce10008003a00004deb00a0
:1004f0000a05e800020039003420ec000af0a000f0
:100500008b05e900f9ff3e00040037006168e10057
:10051000010032000086eb000b00070019c7ba008b
:100520000e04e0001905ba0003003a000a00e000da
:10053000dbff3a0000000600fe07b200ae028800b2
:100540008a047800f5ff37000cd0a300e20f4d00bd
:100550001c003b0089027800354dba000a05e8000e
:10056000020039003420ec000af0a0008b05e900fd
:100570000f003200254dba000a05e80002003900dc
:100580003420ec000af0a0008b05e90008003200de
:100590000c00e0000600320015cdba000a05e800a4
:1005a000020039003420ec000af0a0008b05e900bd
:1005b0008984e80054a0b4000b00e000e2ff3a0098
:1005c000000006009902ba00055d78008b05e9007d
:1005d000f7ff3200c82ade00055d78008b05e900d0
:1005e000f3ff32000c00e000f1ff320019ddba0029
:1005f000eeff37003c13040000000000783c0400cc
:1006000000000000563e040000000000023d04000f
:1006100000000000723d040000000000063e0400df
:10062000000000000000040000000000783c04000e
:10063000000000003600f800809fbe00829fbe00d0
:10064000849fbe00869fbe000000fa00c028a9005b
:100650000000eb00563207000080fa004f03be0096
:100660004f02be004f01be004f00be003600f90031
:10067000004006003600f800809fbe00829fbe004a
:10068000849fbe00869fbe000000fa004f32070024
:10069000c048a90010002000453207000080fa0081
:1006a0004f03be004f02be004f01be004f00be0010
:1006b0003600f900004006003600f800809fbe00ba
:1006c000829fbe00849fbe00869fbe000000fa008d
:1006d000c068a90020002000353207000080fa0021
:1006e0004f03be004f02be004f01be004f00be00d0
:1006f0003600f900004006003600f800809fbe007a
:10070000829fbe00849fbe00869fbe000000fa004c
:10071000c088a90030002000253207000080fa00c0
:100720004f03be004f02be004f01be004f00be008f
:100730003600f900004006003600f800809fbe0039
:10074000829fbe00849fbe00869fbe000000fa000c
:10075000c0a8a90040002000153207000080fa0060
:100760004f03be004f02be004f01be004f00be004f
:100770003600f900004006003600f800809fbe00f9
:10078000829fbe00849fbe00869fbe000000fa00cc
:10079000c608a90070002000053207000080fa009a
:1007a0004f03be004f02be004f01be004f00be000f
:1007b0003600f900004006003600f800809fbe00b9
:1007c000829fbe00849fbe00869fbe000000fa008c
:1007d0002146800000022000008060000000e00050
:1007e00003003200c4a8a90090002000f0310700e7
:1007f00020468000700060000000e000030032002e
:10080000c488a900a0002000e9310700ffff3700dd
:100810000040da000000fe000a00fa000000e000dc
:1008200037003a0043a78000e18f510003003200f7
:10083000e28f51000e003a0009003700002220002c
:100840000000e00001003a000040da002002e2006f
:100850000b0035002822ef0021e2a8000800370035
:10086000002320000000e00001003a000040da0010
:100870003002e200020035003822ef0031e2a80029
:10088000020078001a003700040a2000e18f5100ae
:100890000b003a00030037000402e90002003a00ae
:1008a00003003700040a20002202ab00faff3200e6
:1008b00014118000050037000402e9000200320034
:1008c0003202ab00fcff3200941180006102620032
:1008d00009003200e18f510002003a00341180001b
:1008e00001003700b4118000845878000000e9004e
:1008f0000000e000e4ff3a0000005100080037006b
:1009000023002000b3bf9f00c0bf9f00d1bf9f0046
:10091000e2bf9f006a8057004e1e07006fb8970025
:100920000080fa00000006000a00fa001100200012
:10093000b1bf9f00c0bf9f006a805700471e0700dd
:100940004fb897000080fa00000006000a00fa0085
:10095000e20f500034003e0040a78000e10f50003d
:1009600003003200e20f500011003a000c00370083
:10097000032220000300e00001003a000040da00fa
:100980002002e200020035002822ef0021e2a80048
:100990002342ab000d003a002342a8000b003700b1
:1009a000032320000300e00001003a000040da00c9
:1009b0003002e200020035003822ef0031e2a800e8
:1009c0003342ab0001003a003342a80082017800b4
:1009d0000b0037003102fb00e10f500004003a0029
:1009e0002322ab00feff3a002411880003003700e9
:1009f0003322ab00feff3a00a41188008301e90016
:100a00000300e000f3ff3a00e10f500003003a005a
:100a10002302ab00feff32000b0037003302ab00b5
:100a2000feff32000800370033002000b3bf9f00f4
:100a3000c0bf9f00d1bf9f00e2bf9f006a805700e8
:100a4000081e07006fb99700020078000080fa00c6
:100a500000000600889fbe008004780050a7800038
:100a60000000e00005003a000000eb000e00070067
:100a70000084eb000000e0000800350058a780006b
:100a80000900e000050032000900440006000700ec
:100a90000000e00001003d000084eb000800780049
:100aa0004f04be0000000600800078000100e00056
:100ab00003003a000000200050a788000000050055
:100ac0000080eb0002002000828f500002003e00f8
:100ad00051a788000000eb000000060000000500a0
:100ae0000001be001b0007000470a70003f0a10076
:100af00003f8a30013003a006509b10010003200aa
:100b0000090035006928e1000200350001002800d5
:100b10000000050000004000818048008502e900d7
:100b2000fcff3a0000000600f88f42000500350087
:100b30008100d1000080d3008502e800fcff3a006c
:100b4000000006008000eb00000005006011b80006
:100b50008c023700c70ade00f107b200f50fb200c1
:100b600008003200e1cf4200020032000170a00014
:100b700024000500810f7000010032000408050008
:100b800044000500810f700002003a0014000500c7
:100b90008502e9000000400081c04800fcff3b00e6
:100ba0000170a000240005006022b80006022000a9
:100bb0000000d0008180d2000482d2008582d20061
:100bc0000000a0000202520083825a00030031009c
:100bd0000202420083824a000000a1000603e900ed
:100be000f3ff3a0000000600889fbe008a9fbe0007
:100bf0008c9fbe001b0020000202be00058668001c
:100c000006002800060666004709de00f20fb20063
:100c1000820032000243e80080003200c729de0073
:100c2000f30fb2007d0032000343e8007b00320086
:100c3000f107b2000170a000f507b2000570a00036
:100c4000c708dd004903de00868070004700dd0034
:100c5000c72add004923de00868272004722dd00bc
:100c60000305510004035000858358000300310040
:100c700000004000818048000a05e9008c1f7800d0
:100c80008a9fbe0004005000858058000402420084
:100c900085824a0000004000818048000005eb008a
:100ca0000004be006033b8000406be000d48e10039
:100cb00056003100110009004dccd8000c01b800dd
:100cc0000d02b8008481410060824a008283530093
:100cd00003045c0084845c0060055d000a00e000a1
:100ce00025003a00800578000d40e1004900310000
:100cf0008800780007007800110009004d88d800ae
:100d00000c01b8000d02b8008481410060824a00e5
:100d10006003110083835b0004045c00e0845c00da
:100d20000900e00021003a004f01be000300e0008e
:100d30002b003200e3016000070673008c81710014
:100d400001003200640070004200de004e5edd00f3
:100d50000c007000c258de0001e0a0008301070013
:100d6000cf017800818071004f06be004f05be00a4
:100d70004f04be00000006008c8343000d044c00ad
:100d8000e0844c0060054d000000e9000a00e0002e
:100d9000d4ff32008c8343000d044c00e0844c00ef
:100da00060054d000000e900ceff37000c03430052
:100db0008d834b0060044c00e0844c000000e9008f
:100dc0000900e000d8ff32000c0343008d834b0084
:100dd00060044c00e0844c000000e900d2ff3700c2
:100de0004200de004e5edd000c007000c258de00e6
:100df00001e0a000cf0178000300e000daff32003c
:100e000060001000e0801800d7ff3700f0ff2f00cf
:100e1000aaff3700f0ff2f00b9ff37000404be001f
:100e20002f010700870678000004fd008104fd0003
:100e30002b010700078366000678a3000300320039
:100e40000960a7000800be002c0037000d78a30041
:100e5000020032000800be00280037000778a30017
:100e600026003a0001f0a10009f0a1000668a300e5
:100e700003003200f1ff2700f0ff2f00baff370018
:100e80000d68a300030032000800be008c807000d3
:100e9000b5ff37000768a30007003a000648a30023
:100ea00003003200f1ff2700f0ff2f00aeff3700f4
:100eb0000d48a300030032006000b8008c80700071
:100ec000a9ff37000748a3000400320001f82700fb
:100ed000000020008c807000a3ff3700760107001f
:100ee0000004fd008104fd00020578007201070086
:100ef0000802be008a01780059ff37000160a00097
:100f000012022000d281880097ff37000100e00024
:100f1000120032000500e00010003200889fbe0081
:100f20008a9fbe008c9fbe000006eb0001f8a30064
:100f30000300320060001000e08018000cf0a000f8
:100f400005f8a3000300320060021200e0821a00dc
:100f50000cf0a2008005eb0041ff37006000b800f4
:100f600002000500038368000700280007036300f0
:100f7000470ade000480a100c71ade000580a10038
:100f8000f70f20000720e100420032000728e100af
:100f900040003200889fbe008a9fbe008c1f7800f0
:100fa000f107b200f307b2000400e0006400320071
:100fb0000170a0000500e000680032000370a0008e
:100fc00085054200eb07b1000204b8000302b80037
:100fd0008484440060854a00020ab8008484440086
:100fe0000a854a00030ab8000405450004003300de
:100ff0000804d0008984d2000a85d2008b05e9005c
:101000006158e1003d003500021020000901610037
:101010000308200089816100f707200087836400ae
:1010200008867300c84cde00c853dd008784740056
:101030004855de000300e00006003200820376001f
:10104000040032008904e80060054d000a88a3000e
:101050000c003a00f70f20000758e10044003d0063
:101060000a70a100c75ddd000a8575008a00730063
:10107000090078004f0678004f05be004f04be00ff
:10108000000006000a05d1008984d3008b05e80022
:10109000f0ff3700881f78000604780090000700f2
:1010a000070278000001fd008101fd008c000700af
:1010b00087027800850372000778a30005003200dc
:1010c0000001fd008101fd009f0007004f04780032
:1010d00000000600850372000748a30003003200e9
:1010e000f0ff2f00f1ff2700f8ff3700000020007d
:1010f00001f8270088807000f4ff3700880178002d
:101100004848dd00808171004848de00c850dd009d
:1011100001007000c850de00060478000b01780062
:101120001600070088807000d2ff37000500e0003d
:1011300005003200170020003a0007009dff37002d
:1011400081037000f9ff3a00860078004f067800ae
:101150004f05be004f04be00000005008303710070
:10116000f9ff3200270020002e00070094ff37000f
:1011700001f8270086807000f4ff37000100e000ce
:1011800026003200610111007810e10023003c00cc
:101190006022b8007010e100040035008002780081
:1011a000010078008000eb00700151000200e000b7
:1011b0000900340070031100062add00822ade00d7
:1011c0008603dd00878272000200de00860bdd00f0
:1011d000070070008208de0084817100f4ff2700a0
:1011e000048262008481710004002800848262000d
:1011f0006102600005f0a600000006000482710094
:10120000070032000000e800e0804800000006000f
:101210000002be006000b800efff37006000b800b9
:1012200000000600889fbe000004eb006138e1006a
:1012300016003a000100e00008003a00c800de0095
:101240004800dd00880020000100e00003003a00b3
:10125000c800de004800dd00680444008184cf003f
:10126000e9845400060034008908dd00f08314008e
:101270008703de00878070000900dd000904440058
:10128000610214004f04be00000006000300e000ed
:1012900008003a00c811de004811dd008800200077
:1012a0000300e00003003a00c811de004811dd0031
:1012b000680444008384cf00e984540006003400ad
:1012c0008919dd00f08314008713de008781710027
:1012d0000911dd0009044400e1021400e9ff3700b0
:1012e0002700200001f0a70017002000470bde00b8
:1012f000f60fb200040032000643e8000a00320094
:101300004702b3000000060001037800f607b200b0
:101310000603700002003a000703b3000000060055
:101320008702b3000000060001037800f607b20050
:1013300006037000020032000770a00000000600e3
:101340000760a000000006000478a300040032003b
:101350000578a300030032000168a30001003a00f1
:101360000200be000160a0000000060081017000c4
:10137000270032008002eb0001f8a30003003200d6
:1013800060001000e080180015002000f407200025
:101390000202420020003400f703200087036000af
:1013a0000604200000036300020820000001610021
:1013b0004700de00c909dd0000807100c708de00bb
:1013c0000600e000080032008703710006003200ca
:1013d0001000b0000180b0000188a30002003200bc
:1013e000c108de000402e800f107b200f30f20009c
:1013f0000320e10003003d004722dd008100720070
:101400002900370001f827000000eb002600370014
:101410006000b80000000600680212007f20e100b2
:10142000020034006000b8001f0037006011b800ef
:101430007020e10004003500800178000100780090
:101440008000eb00700252000400e000090034004c
:10145000f00312000719dd008419de000703dd0028
:10146000868171000400de00070bdd0006007000bd
:101470008408de00f7ff2700838363008703710081
:101480000600280003036300070032000700e000a5
:1014900003003a0061016000028173000200320023
:1014a0001000b0000180b0000500a600000006009a
:1014b00001f0a000000006004f0ade004709de0030
:1014c000f107b200f20fb2000b003200f207b100d8
:1014d0000170a000c708dd00c901de008380700034
:1014e0004700dd000400a6000000060060001000b8
:1014f000e080180000000600810f700001003a0033
:10150000000006008182cf000500e00010003e00d0
:101510008082cf00ee8242007028e1000400390092
:1015200007003e00800078000000eb000e0037004e
:10153000708312008600de000500dd000a0037001f
:10154000708352008600dd000000eb0006003700cb
:10155000e28252008508dd00708312000603de007f
:10156000868070000500dd007507b0000501ea0007
:101570000400a6000000060060001000e0801800d3
:1015800000000600889fbe008a9fbe000082700097
:101590000402710004827100260032000004be00c3
:1015a0000200be006011b8006b0920009502200007
:1015b0000182cf000a0039000541b1000082cf004e
:1015c000070039000541b1000982cf00040039004d
:1015d0000541b1000882cf00010039000541b1008a
:1015e00005425200120032000a003b008281710065
:1015f000610164008100d1000080d3008984d300a0
:101600000884d3008b05e8000442e800f7ff3a00a5
:10161000070037000804440089844c00000048009b
:10162000818048008b05e9000442e900f9ff3a0097
:10163000030007004f05be004f04be000000060077
:1016400081002000618055000b003d000b00200050
:1016500061fe2f000100e1001d0034008281710055
:10166000610164008904d1000884d3000000e8000f
:10167000faff3a007100200061006400030070006e
:10168000020060000900320061044400e0844c0064
:101690000988a500050032008b05e8006808e10014
:1016a00002003a008904d1000884d300f20f200020
:1016b0000258e10005003d00c75ddd00f907b200fa
:1016c0008980750008007800000006000bf82700ec
:1016d0008b007800000005000000fa0068815700c8
:1016e000cfb89700e00307000080fa000000060072
:1016f000f10107004c020700010307002b0307005c
:101700008202070043040700ea0337000000fa00e2
:1017100068815700cfb89700d80307000080fa000f
:1017200000000600b906370080017800020037008b
:10173000b15978000201e9000200e000fcff3a0024
:101740000000060081017800000278003041780036
:10175000b14f510002003a000204e000f9ff3a00e4
:101760009480fb001380fb00008050000000060006
:10177000881f780000047800080078007a0d0700c0
:10178000080078004f047800000006008001eb009c
:101790000200e0001000320000027800010378002f
:1017a000b44178000304e00008003200b142780040
:1017b0000504e0000500320082034000848f5300de
:1017c0000200320085cf5100f4ff32008381fb001c
:1017d0001680fb00808151000300780000000600a5
:1017e000114290000482fb009180fb00c808dd00dc
:1017f0000482700080007800d181fb001081fb0022
:101800004811dd0003017100030037004811dd00bd
:101810001180fb0002017000010078003104e0003b
:1018200004003200840f5100f8ff3a000000e90084
:101830000000060000000500114390008683fb00b5
:10184000060020001181fb008001eb00c811dd00c3
:101850000200200002037300838373002141900083
:101860004811dd008001eb000203730083837300e5
:101870008080e800104190008281fb00020020007f
:101880001082fb008002eb00c822dd000400200073
:1018900004017100858171001182fb004822dd0086
:1018a0008002eb000401710085817100080037009f
:1018b0001182fb008002eb0004027100858271003e
:1018c0004829dd00c821de00830171004821dd00c8
:1018d000010078003104e00005003200860f51005d
:1018e000878f5900f2ff3a000080e90000000600ef
:1018f00000000500314190000281fb008001eb00f7
:101900001183fb008003eb00c833dd0006002000dc
:101910000603710087837100114190008281fb00f2
:1019200002002000020373008383730021419000b2
:101930004811dd008001eb00020373008383730014
:10194000e30040001182fb008002eb001081fb00ed
:101950008001eb00c811dd000200200002017200ce
:1019600083817200104290008482fb0004002000fa
:101970000401710085817100204290004822dd0041
:101980008002eb0006003700481add00c812de00b6
:10199000850272004812dd001181fb008001eb001e
:1019a0000201720083817200010078003104e000be
:1019b00005003200860f5100878f5900f2ff3a0070
:1019c0006300500000000600000005002802fa0035
:1019d000889fbe008a9fbe008c9fbe0000047800d6
:1019e000810578000f000900001feb000e02b10016
:1019f0000b017800880078008004eb000d003700b0
:101a00000080fb00c401de00838141006f026000a2
:101a100015002000042add00ee82790004827200a5
:101a200004b779008904e800000040000002b0001b
:101a300009377800324078000004e00005003a00e1
:101a40001a0020000a0078000001eb008081eb0002
:101a50001b0037003104e000e9ff3a00a80037001e
:101a60000382450000024200944278000182450052
:101a70001442780084cf520005003a008a0f5000cb
:101a80000c0032000000e800820078000b003700f4
:101a900084cf520002003600038550000600370054
:101aa0008200e800820178001a0020000a00780015
:101ab00002003700000578001000200001017800c6
:101ac00082004000898f5000e5ff3900110020009e
:101ad000010078000002eb008086eb001800370060
:101ae0008d82450080824200154378008282450045
:101af00095427800854f530005003a00810f500051
:101b00000c0032000000e800040178000b003700f0
:101b1000854f5300020031008d0051000600370050
:101b20000401e8008406780011002000010078001c
:101b300002003700800078001000200002027800c8
:101b400004014000890f5100e5ff39000d01e80054
:101b50000300e800800f5100020036000105780004
:101b600001003700830678000d02e8008a804500f6
:101b7000040178000b00780034179a004b0b070023
:101b80003e1292000000e000080032000905e90062
:101b90000d0555008d0f5500010031000d05780031
:101ba0000a05e8008002eb00010037008a82540039
:101bb000880178000006eb0008805100890f500072
:101bc0001600310009037800f603b300060178001f
:101bd0008000eb000300780003179a0034179a0086
:101be00015179a0026179a00010b07008e11920014
:101bf0003e1292009e1292002e1392000000e0000e
:101c00000500320088005000898f50003c003900e8
:101c1000800178000100370086814100890044007e
:101c200071f897000080fb006f0160001700200032
:101c3000823bdd004401de00020141006e037900b9
:101c4000068163000d003200000040000002b00079
:101c50006e007800008054000a0032000500e000a9
:101c6000160032000c00e000140032008a0f500011
:101c7000120031000a80540010003700010478007f
:101c8000ccff37000c007800840f560003003100b1
:101c900004007800010037000000e8008080450063
:101ca000914078000104e000060032000001440089
:101cb00092cf5000f8ff32000d00500000044400a5
:101cc000bcff37000d0078008000e8008c8f5000ca
:101cd0000900360000814500800044000000e90052
:101ce00012417800914f5100f7ff32000a0444007e
:101cf00005067800b0ff37000800780001003700c3
:101d00000000eb004f06be004f05be004f04be00b2
:101d10000080fa0000000600881f780001047800a7
:101d2000984078000104e000260032008100fb00aa
:101d30002d0c07000000e0002200320098409000c7
:101d40000104e0001f003200904090000104e00018
:101d50001b003200a84090000104e00003003a009c
:101d6000880078009efe070016003700a040900013
:101d70000104e00012003200b84090000104e000cd
:101d800003003a0088007800abfe07000d00370022
:101d9000b04090000104e00009003200c84090000b
:101da0000104e00003003a0088007800d1fe07003b
:101db000040037008800780004ff070001003700a6
:101dc0000000eb004f047800000006004400fa0019
:101dd000889fbe008a1f78000004be0002057800bc
:101de00094bf9f00a5bf9f00b6bf9f00c7bf9f00c5
:101df0000000eb00c09f9f00a8af9f00d89f9f00ee
:101e00000080eb00b0af9f006022b8006033b800e4
:101e100060fb2f000f004000160b07001fba970051
:101e2000afba97003fbb9700cfbb970012002000ce
:101e30008a00780060fb2f000f0040004408070074
:101e40000900e000060032003fb29700afaa9700f9
:101e500004824200df9a970005025200840c44007d
:101e60004f0578004f04be000080fa000000060015
:101e7000f4ff2f00f5ff2f000403be00d3ff37004f
:101e80006022b8000600200007002800cfff3700be
:101e9000f4ff2f00f5ff2f006033b800cbff3700b1
:101ea00004002000050028006033b800c7ff370099
:101eb000f3ff3700eeff3700ec874700889fbe0036
:101ec0008a9fbe008c9fbe008e1f7800000678009f
:101ed0000104780018079000280590009806780003
:101ee000cdb79f00b80590001202780092029000d2
:101ef00022039000b20390000400be000601be0061
:101f00004f18de006011b8008000eb00d0b79f00d2
:101f1000e1b79f00f2b79f0083bf9f008004780065
:101f20000900e000060032006000b8006011b8004f
:101f30000402500085825800060359008783590027
:101f40000e00e000020035000d10a100cdb79f008b
:101f50000900e00005003a004fb097000028a300f8
:101f600002003a000038a300020032008a00e900b3
:101f7000010037008a007800f8815700a200200095
:101f8000080078008b0007000900e00003003a0019
:101f9000cfb097000128a300080032000000e9003c
:101fa00000814500b1c2b3000900e0000100320029
:101fb000d1c2b30001497800060037000138a30000
:101fc000040032000000e9008080450002c2b30036
:101fd00082487800480190000201e90000015100a8
:101fe000808045004fb297008a0178000c0078008d
:101ff000530207009c0090000188a30004003200f7
:1020000098009000810f500001003d000100780011
:102010004f0778004f06be004f05be004f04be00bc
:10202000cf00b100000006000200fa00889fbe0049
:102030008a9fbe00800578000104780002007800c5
:10204000180190002805900098007800b1bf9f000b
:10205000b80490000200e000020035000110a10069
:10206000b1bf9f00ea815700820020008a007800fb
:10207000100278009002900020039000b0039000be
:10208000080078004b0007003fb99700f00061009e
:10209000040032000000e9008080440002c3b30065
:1020a000824878003fb99700e800610004003200e0
:1020b0000000e9008080440002c2b300824878003a
:1020c000480190000201e9000001510080804400b5
:1020d0003fba97008a0178000b00780018020700c9
:1020e0009b0090000188a30004003200980090003b
:1020f000810f500001003d00010078004f05be0037
:102100004f04be000080fa0000000600ea87470086
:10211000889fbe008a9fbe008e1f78000004780052
:10212000030078007287570084e2260055c7260016
:10213000049fbe00c3962200030f78006c875700ef
:10214000004feb0011059000a1049000910578006c
:102150000200e000020032000207780001003700b0
:10216000728757000000e00002003a000e0078007d
:10217000520b07000a00e000030035008a0f5000f0
:10218000010036000a0078000b027800890178000f
:10219000000178008e00780008007800e801070050
:1021a0004f0778004f05be004f04be00af00b100de
:1021b00000000600f4874700889fbe008a9fbe008b
:1021c0008c9fbe008e1f78000605be000404be0072
:1021d00081bf9f0082b79f00f3b79f00b0009000bf
:1021e000e1b79f001301780092b79f00900690001e
:1021f000400090000000e900000678000d00e000bb
:1022000001003d001d002000efb19700008041005b
:102210000048eb001e0020001f0037000c06e900fc
:102220000fb09700cf80de006109b900a0b79f0012
:10223000b1b79f00c2b79f00d3b79f000203be0093
:102240000002be000800be000a01be003e1b0700df
:1022500000077800efb097000c80400003c3b30084
:10226000034847008d06e9000fb897000000e90019
:1022700080bf9f002fb29700bfb297004fb3970067
:10228000dfb397000800be000a01be00271b07004d
:102290000205be000004be000c00e0000d0034008a
:1022a000e00f5400e08f5c00e00f5d00e08f5d0008
:1022b000daff3a000d00e000d8ff3c008fb897002d
:1022c0000100e000030034001fb197000218a300d2
:1022d000d2ff3a000e00e00002003a00ffb1970082
:1022e0001340a1000c0078004f0778004f06be0095
:1022f0004f05be004f04be004f01b10000000600b4
:102300000200fa00889fbe008a9fbe000005780088
:10231000010478000200780018019000a8049000e1
:1023200098007800b1bf9f00b80590000200e0005f
:10233000020035000110a100b1bf9f00ea815700e3
:10234000a20020008900780010027800900290001e
:1023500020039000b00390000800780095ff07006c
:10236000480190000201e900000151008080450011
:102370003fba9700890178000a00780070010700d1
:102380009a0090000188a300040032009800900099
:10239000810f500001003d00010078004f05be0094
:1023a0004f04be000080fa0000000600fa874700d4
:1023b000889fbe008a9fbe008c9fbe008e1f780043
:1023c00080047800010478008205780018019000ec
:1023d0002805900018077800b80090000200e0007f
:1023e000020035000e10a10001003700120020008d
:1023f00070006700e0b79f000b0032001b027800fe
:102400009b0290002b039000bb039000e00f520052
:10241000e08f5a00e00f5b00e08f5b0002003200ab
:102420008a86e900010037008a067800e802670022
:10243000f5b79f00010032008d06e9001b0278000d
:102440009b0290002b039000bb039000e4af9f0021
:10245000f5af9f0086b79f0097b79f004806900092
:102460000c06e9000c8040000048eb00efb297003a
:102470007fb297008903780081047800d8af9f006d
:10248000020478008bbf9f008a057800034578001e
:102490002b0037000c06e9006fab97006f0063005c
:1024a000e90f500002003c000003b00001003700bb
:1024b0007005b0000a03fb001604b100f90f5300c9
:1024c0000c003e00000378000650a0001606b10084
:1024d000f90f530007003e00b4b79f00a5b79f0057
:1024e000c7b79f00c80a0700cfb39700afb29700e5
:1024f0003fb297000c834400004b78000804e900c9
:102500008d06e9006fa89700ffa897000fb197000c
:102510009fb19700460020008301d1000281d300c3
:102520008180d3000080d3000603e900faff3a005f
:10253000e0af9f00f1af9f0082b79f0093b79f006d
:10254000e10f56000f0034006fa89700ffa8970016
:102550000fb197009fb19700e00f5000e08f580037
:10256000e00f5900e08f5900caff3a000800e00070
:10257000c8ff3c000d00e000020034000e18a3006c
:10258000c4ff3a0089007800f4b79f008704780000
:102590005fac97008a4178000b0578008fbd9700eb
:1025a0000500e000140032001b0278009b0290003e
:1025b0002b039000bb039000e4af9f00f5af9f009a
:1025c00086b79f0097b79f00e00f5200e08f5a0038
:1025d000e00f5b00e08f5b00070032000c06e900b3
:1025e0000c804000034878000c06e9000c80400095
:1025f00002c3b30002487800ffb297000500e00074
:10260000040032000c06e9000c80400002c2b30056
:1026100002487800480190000201e9000c015100d5
:102620008c8040000e0278008a0178000900780052
:10263000c3000700990090000188a3000400320045
:1026400098009000810f500001003d0001007800cb
:102650004f0778004f06be004f05be004f04be0076
:10266000af01b1000000060082017800010178008e
:10267000f1ff2700790a3700d90537003c00fa003e
:102680008f017800c303b1001d0009008019eb0021
:10269000c0a79f0080b79f00c0332100b0b79f0044
:1026a00040fc2f000f0040005e0a07000080fa0087
:1026b0000000060084082000848f50001d003200b6
:1026c0000d003c0014082000848f500027003200c9
:1026d00002003c0004082000040037002408200009
:1026e000848f50003600320044082000848f500050
:1026f00047003a003a003700040a2000848f500057
:102700002900320004003c0004092000848f50009e
:102710003f003a002a003700020c2000828f500050
:1027200033003200020f2000828f500038003a0040
:102730002f0037009380e9000200e000050032001e
:10274000810978001102fb00cfa2de00612bb900e5
:102750002c00370081097800114278000482fb00c8
:102760008002eb006033b8002600370013027800c7
:10277000e40052000200e000060032008109780007
:1027800011027800910290004fabde0086037800c2
:102790001c00370081097800110278009102900036
:1027a0006033b800170037009380e9008109780092
:1027b00011027800cfa2de00612bb90011003700b2
:1027c00093027800e88052008109780011027800b5
:1027d0009102900021039000b1039000090037009e
:1027e0009380e9000200e00002003200efff3700b2
:1027f0009380e90081097800110278008002eb00e3
:102800006033b8000498be000690be0010000500ba
:102810000000050044082000848f5000250032008d
:1028200008003c0014082000848f5000140032007f
:1028300024082000848f5000240032000408200067
:102840000c00370004092000848f50001f00320064
:1028500004003c0084082000848f500024003a00cb
:102860000e003700040a2000848f5000110032004f
:10287000040c2000848f50001d003a000d0037002a
:102880009380e900810978009100780001087800c0
:10289000cf91de008288be00140037009380e900eb
:1028a000810978009100780001087800824878005a
:1028b0000e0037009380e9008109780091007800cc
:1028c0000108780082087800080037009380e9004a
:1028d0008109780091007800010878006112b90040
:1028e000612bb9008498be008690be0010000500e0
:1028f00000000500889fbe0000047800480090009a
:1029000082047800808f5400010036008004780033
:10291000090178005800900083fb070058009000e0
:102920000900400050049800c800900089845000bd
:10293000490498000048eb004f04be000000060068
:10294000f2874700889fbe008a9fbe008c9fbe0012
:102950008e1f78008004780001057800020478005a
:10296000830578006107620002003a008b0f540073
:1029700008003900080178008a0078000900780012
:10298000dd1307008b0f5400020039008805780022
:102990001e003700088655000c017800f00f560025
:1029a0000100360002012000010220007e80570055
:1029b000cc0707008c0678000500370002012000d4
:1029c000fe80570009007800cb130700f086560000
:1029d000ef8f5600f9ff3e004461de0000ff2f003c
:1029e0008091b9000c014100fe8057000900780079
:1029f000c11307000e00e00004003a00080178004f
:102a00008a00780009007800bb1307000b007800eb
:102a10004f0778004f06be004f05be004f04be00b2
:102a20002f01b100000006000000050000000500b5
:102a300000000500000178000040eb008080fb00f2
:102a400081804000e34b21008181410013427800e6
:102a50000404e00004003a00f04b21008100400033
:102a6000114078000000060092017800934f520058
:102a700005003a00f04b2100810040001140780031
:102a80000309e800010037000040e800ea4f500069
:102a9000eaff360000000600f6874700889fbe0068
:102aa0008a9fbe008c9fbe008e1f780000057800b4
:102ab0000104780083057800040678000000eb002c
:102ac000c0b79f008080eb00d1b79f00e0b79f00a8
:102ad000f2b79f000008200080bf9f009800780098
:102ae000010078008004eb00010037008904e80051
:102af000304178000204e0000300320053c2b3000a
:102b0000834f5100f9ff3a000900e0000400320051
:102b1000090178000a00780077130700188c440038
:102b20001807780050c2b3009e4f10003f013a00d2
:102b30000e07e8000e0c780010003700cfb09700a9
:102b40000100a0000b003700cfb097000110a000db
:102b500008003700cfb097000120a0000500370023
:102b6000cfb097000130a00002003700cfb097002f
:102b70000140a000c1b79f00000ce80018007800d9
:102b800090407800b2c2b30082cf5000f1ff320013
:102b900007003c0002c2b30082cf5000f0ff3200b9
:102ba00032c2b30082cf500007003a00efff370077
:102bb000d2c2b30082cf5000e0ff320002c3b300a4
:102bc00082cf5000e0ff3200a2c2b30082cf50009b
:102bd0000d003a00000ce8001c80e900000e7800af
:102be00010007800e0b79f000000e0000f003d00fb
:102bf000cfb097000100a200c1b79f000000ea001b
:102c0000e0b79f0009003700a1040700e0b79f006c
:102c100001003700000ce800180078009000fb006d
:102c20000103b100e98f5000faff36004fb0970062
:102c30000008a300020032000010a100c0b79f00ee
:102c400018007800e1c2b30090cf100016003a00df
:102c50008000eb00d1b79f000000e800000c780076
:102c6000a1c2b30090cf100006003a00000ce800ab
:102c70001c80e900000e780010007800d0b79f009b
:102c80000900370082040700d0b79f000100370019
:102c9000000ce800180078009000fb000103b10070
:102ca000e98f5000faff36000800780061ff070046
:102cb00080467800180078001000fb00cb08070061
:102cc00091062000810f50003800320012003c00b5
:102cd00041062000810f5000340032000a003c0001
:102ce00011062000810f5000200032003106200024
:102cf000810f5000a000320051022000810f5000cf
:102d0000bc003a00b400370071062000810f50006b
:102d1000b8003c008800370001072000810f5000f8
:102d20005c00320007003c00e1062000810f5000eb
:102d30007a003200f1062000810f5000ad003a0009
:102d40003900370051072000810f50002700320062
:102d500081072000810f500042003200310720001f
:102d6000810f5000a3003a008f0037008d80fb00d8
:102d70000c01780000fe2f000f004000dc08070067
:102d80000000e000a800320018007800000ce80005
:102d90009041780002fe2f000f014100f88057009b
:102da0000a00780021ff07000e0037008d80fb002d
:102db0008c0178001200200000fe2f000f00400060
:102dc0003cfe07000000e00097003200180ce8000d
:102dd00002fe2f000f014100f88057000a00780022
:102de00035fc070080844400900037008d80fb0094
:102df0008c0178000001eb0000fe2f000f00400066
:102e00002cfe07000000e00087003200180ce800ec
:102e100002fe2f000f014100f88057000a007800e1
:102e200037fd0700efff37008d80fb008c01780035
:102e30000001eb0000fe2f000f0040001dfe070008
:102e40000000e00078003200180ce80002fe2f00bd
:102e50000f014100f88057000a00780072fc07005b
:102e6000e0ff37008d80fb008c0178000001eb0053
:102e700000fe2f000f0040000efe07000000e000e3
:102e80006900320018007800000ce80090417800da
:102e90001c0037008c0178000001eb00010f2000be
:102ea00000fe2f000f00400002fe07000000e000bf
:102eb0005d003200180ce8000fb097009fb097003b
:102ec0002fb19700bfb19700e00f5000e08f58007e
:102ed000e00f5900e08f590009003a00cfb5970084
:102ee0006fb49700604b2100f40707000b027800d5
:102ef0008801780000017800614b2100470037000d
:102f000083c7b30002fe2f000f014100f880570075
:102f10000a00780025fd0700b2ff37000b8144004e
:102f20008d80fb008c01780000fe2f000f00400018
:102f300038fe07003c0037008d80fb000c01780054
:102f400000fe2f000f004000690807000000e000ad
:102f50003500320018007800000ce800904178003d
:102f600002fe2f000f014100f88057000a00780090
:102f7000aefe07009bff370000c8b30080cf5600ad
:102f800029003a00180ce8001c80e900000e7800c7
:102f900010407800e0df9f0013002000e2fd2f00ca
:102fa0000f0141000800370000c8b30080cf560071
:102fb0001d003a00180ce8001c80e900000e7800a3
:102fc0008001eb0010017800f88057000a007800bb
:102fd0004efc070083ff370000c8b30080cf5600c7
:102fe00011003a00180ce8004fb29700efb19700bb
:102ff000080037000e0c78000000eb00c0b79f00ff
:10300000e0b79f000080eb00d0b79f000002eb000c
:103010008401780012002000c14b21000a007800d2
:1030200047fe07006fff3700180ce8000900780022
:103030004f0778004f06be004f05be004f04be008c
:103040006f01b100000006008200fa00889fbe00f8
:103050008a1f78000005780082047800c13f9f0035
:103060000004eb00100037000902780088017800a6
:10307000a2f72f000f01410081f72f008f80400041
:103080000a00780084fe070008004000880f500006
:1030900004003d00b004200020a788000084eb005d
:1030a00004003700000478004f3897001004e00057
:1030b000edff3a00080078004f0578004f04be008d
:1030c0000080fa00000006000600fa00889fbe009b
:1030d0008a9fbe008c9fbe000004be00820578005f
:1030e000404d2100000f7800804d2100100798000e
:1030f0000b80e8000005eb00830f50003d003d0011
:103100000b0678008a0678008080eb007808900033
:1031100038119000820f5000030031003085fb0011
:10312000700c98000700370008007800210798000d
:103130007506070000057800ae009000e10f45001d
:103140002c003200e18f40000a003a000a007800ab
:10315000a60707000005780090062000800f5500a4
:103160000f003200e0062000800f55000e003200f4
:103170001c0037000a007800210798009b07070011
:10318000ae009000018140006e0179000d01410008
:103190001201fb00820f50000400320011003700c2
:1031a0008000eb0001003700110020000c8044007b
:1031b0000a4878000c06e8008d06e800e38f560008
:1031c000d2ff3a000d0578000a0037003810900051
:1031d0000000e00003003200780890000000e900e1
:1031e000700c98000c06e9008b0f5600f7ff3d00ad
:1031f0000005eb000a0078004f06be004f05be0038
:103200004f04be000080fa0000000600f28747006d
:10321000889fbe008a9fbe008c9fbe008e1f7800d4
:1032200000047800a1b79f00830478002205900075
:1032300042069000b20590009906780008007800d8
:10324000c30007008d0c40000c06e9000a00e000f6
:1032500001003a000c057800eab79f000a007800e8
:103260008c0f500001003400ecb79f000b07780072
:1032700011002000c1b79f008006eb00ddb79f0062
:103280000d057800bdb79f008bbf9f0088057800b3
:103290000d047800840037007b089000bb1090007c
:1032a000810f5000030031003086fb00f00d9800c4
:1032b0000a0037000b0078001306070000067800ac
:1032c000e10f460005003a008fbd97007fb29700de
:1032d0000400e0007b003c00880037000a00e000aa
:1032e0000e003a00b0022000800f560003003200aa
:1032f000d0022000800f560008003a000d00e000c8
:1033000002003200888f56000c003a000c4f780003
:10331000990ce8001a0020005e0037003fb09700cb
:103320000000e00013003a00e0022000800f560089
:1033300010003a000800e000090032000b04780099
:103340008fbd9700381090000000e0005d00320053
:10335000780890000000e900700c980059003700d0
:103360000c4f7800990ce80011002000b1b79f00c5
:10337000480037000800e00023003a005fb29700e1
:103380000400e000040032000c007800170707007a
:103390000087b200030037000c0078001307070015
:1033a0005086b20000f0a7000000ea000000e9002b
:1033b0004f00de000004e000570032004fb49700d9
:1033c0000c4f7800990ce8000005eb003100370045
:1033d0000c0078000507070081072000810f5000ce
:1033e00009003a00fef8970000c3b30080cf5000f8
:1033f00005003a000c4f7800990ce80010002000fe
:10340000d0b79f0023003700dfb097000100e00035
:10341000050032000c007800e80407000000e0001e
:103420001a003a000400370000fd2f000c00400095
:10343000e90f5000150036000b0478008fbd97008f
:10344000381090000000e00003003200780890007f
:103450000000e900700c98008d0f550019003a002b
:10346000efb197000a0178008b007800080078001f
:1034700015ff07000000e000110034000a054000bd
:10348000fab79f00990c40000e0037000c4f7800ef
:10349000990ce8008d06e8004fb297000402e8009e
:1034a000c4b79f000e07e800fdb79f00efb097007c
:1034b000818f560078ff35008fbd970001003700df
:1034c000fab79f007fb29700048045000048eb00e8
:1034d000fe8057000b007800c20607002fb297004d
:1034e000009abe000292be001c0020001fb0970090
:1034f000808f550001003a00ecff2f000c0078008f
:103500004f0778004f06be004f05be004f04be00b7
:103510002f01b100000006000a00e800808f56006d
:10352000b9ff3a00aaff37008000780010002000a1
:1035300002022000828f500004003200e980500017
:10354000e48f5000010036000000eb000000060090
:10355000889fbe00000478008004eb000b00370059
:10356000f1ff07000000e00007003a00381090006b
:103570000000e00010003200780890000000e90030
:10358000700c98000c0037008904e800f8089000df
:1035900038109000808f5000030031003180fb0014
:1035a000710c9800eeff3700080078005605070000
:1035b000e10f4000eaff3a00090078004f04be0026
:1035c00000000600889fbe008a1f78000004be002d
:1035d000190078001000fb00d3ff07000005eb0086
:1035e0000000e0000900320008007800d8ff070062
:1035f000000578001900e800800c78001000fb003e
:10360000c9ff07000000e000faff3a000a00780056
:103610004f0578004f04be00000006001801fa00b4
:10362000889fbe008a9fbe008c9fbe000005780068
:1036300001047800830578000406780068004700dc
:10364000040009000018eb00720798000008200031
:10365000000f9800880078000a007800d9ff070062
:1036600080067800190037007a089000ba109000a0
:10367000810f500003003100b084fb00700d9800f2
:10368000050037000a0078001f0507008004780055
:10369000e18f440007003200180078001000fb00a2
:1036a000808f5400030032003a109000e9ff2f0091
:1036b000100137009b0de800180ce8008800780026
:1036c0000a007800bfff07008086460018007800d7
:1036d000904078000104e0000300320052c2b300c1
:1036e00082cf5000e0ff3a009b8d460051c2b300ec
:1036f00090cf10008b013a000000e800000c780029
:103700008000eb0061079800210f9900a1c2b3006f
:1037100090cf100003003a00000ce80011002000d8
:10372000210f990018007800d90107006007980060
:103730006102b900612bb9000a007800cd040700ce
:1037400001003700000ce800180078009000fb0032
:103750000103b100e98f5000faff3600080078003d
:10376000b4fc070080467800180078001000fb00c9
:103770001e06070091062000810f5000390032001c
:1037800015003c0031062000810f5000a1003200de
:103790000a003c00b1052000810f5000db00320020
:1037a00011062000810f50008800320051022000d5
:1037b000810f50005a013a00ba003700410620003c
:1037c000810f50001900320071062000810f500057
:1037d00053013c007d00370001072000810f50009d
:1037e0005900320007003c00e1062000810f500024
:1037f00066003200f1062000810f500048013a00b7
:103800003d00370051072000810f50002600320094
:1038100081072000810f5000450032003107200051
:10382000810f50003e013a008d0037008b01780077
:10383000680147008e0078000a0078004201070006
:10384000800478000900e00039013500180ce80018
:103850008004eb002e0891000000e00034013a00e3
:103860000d0037008b017800680147008e0078005a
:103870000a00780034010700800478000900e000a5
:103880002b013500180ce8008004eb00ae08910015
:103890000100e00026013a008d80fb008c017800d9
:1038a00012002000100037008b01780068014700eb
:1038b0008e0078000a007800230107008004780059
:1038c0000900e0001a013500180ce8008004eb0044
:1038d0002e0891000000e00015013a008d80fb00e9
:1038e0008c017800090178000e0078004506070079
:1038f000800478000e0137008b01780068014700d2
:103900008e0078000a0078000f010700800478001c
:103910000900e00006013500180ce8008004eb0007
:10392000ae0891000100e00001013a00ebff370012
:103930008b017800680147008e0078000a0078004b
:1039400001010700ddff37008b01780068014700a7
:103950008e0078000a007800fb00070080047800e1
:103960000900e000f2003500180ce8008004eb00cc
:10397000ae0891000100e000ed003a008c017800f3
:1039800009017800010f2000d7ff3700180ce8006c
:103990001b007800cf80de006109b900009fbe00e7
:1039a0000297be008004eb002e0891000000e000aa
:1039b000df003a008d80fb008c017800090178005f
:1039c0000e0078000f060700d90037008b01780041
:1039d000680147008e0078000a0078000bfe07009f
:1039e000800478000900e000d1003500180ce800e0
:1039f0008004eb00ae0891000100e000cc003a002a
:103a00008d80fb000c0178000e007800da050700bd
:103a1000b7ff370000c8b30080cf5600c0003a009f
:103a20006e0090000000e00002003a00100020004c
:103a300060079800180ce8000002eb002e089100c7
:103a40000000e00003003a001c80e900000e78004e
:103a5000100278008b0178000001eb000d003700a8
:103a600000c8b30080cf5600ad003a00180ce80043
:103a70000002eb00ae0891000100e00003003a00f4
:103a80001c80e900000e7800100278008b0178009d
:103a900012002000e80047000a007800ab00070091
:103aa00093ff370000c8b30080cf56009c003a0057
:103ab000180ce800fa0890003a109000808f50002f
:103ac000030031003180fb00710d980002003700c7
:103ad0000a0078000c04070051022000810f5000fa
:103ae00002003a009b0de800900037003a10900069
:103af0008004eb000000e0008d0032007a089000a6
:103b00000000e900700d98008900370000c8b3007c
:103b100080cf560082003a008006eb002e0891000c
:103b20000000e00003003a001c80e900000e78006d
:103b3000900678001800e800000c78008004eb0084
:103b4000e1c5b30090cf100002003a00000ce8007d
:103b50001900200012102000890078007200470030
:103b6000600307000040eb00205798001800780021
:103b700090407800d2c2b30082cf500005003a00d6
:103b8000000ce80010c0b3000940500000c79800c6
:103b900029003700d2c5b30082cf500026003a007a
:103ba000000ce80010c0b3000940500000f7980076
:103bb000210037000004e00024003200d3c2b3002b
:103bc000834f500015003a00180090001040780014
:103bd0000004e00011003200814f50000f0032005d
:103be0000201e800020c780078b897001000fb0092
:103bf000f200470000804000030037000000e800aa
:103c000011c0b30009c85000f20147008301500001
:103c10009200fb00818f5100f8ff350018007800fa
:103c20009000fb00f380400012c0b3000941510036
:103c300002f77800000ce8001801780012407800c4
:103c4000d1c5b300814f5000daff3a000d00e0000b
:103c5000180032008d0078000006eb0003003700ea
:103c6000895878000c06e8009b0de8007a0890005f
:103c70003a119000820f500003003100b084fb0025
:103c8000700d9800050037000a007800310f990088
:103c90009d03070080047800be08910073804400f3
:103ca0006e4078000004e000edff3a00100037009d
:103cb0009b0de8007a089000ba109000810f500028
:103cc00003003100b084fb00700d98000300370042
:103cd0000a0078008c030700800478007380440099
:103ce0006e4078000004e000f1ff3a000006eb00af
:103cf0003a1090000000e000030032007a089000c3
:103d00000000e900700d98000c00e0000400320093
:103d10000d00e000020032008c864600804eeb0071
:103d2000180ce800e18f4400010032008004eb0031
:103d3000090078004f06be004f05be004f04be00cc
:103d40000080fa00000006000000050000000500e9
:103d50008400fa00889fbe008a1f78000005780062
:103d600082047800b13f9f000000eb00c03f9f003d
:103d7000000478000d0037000902780083f72f0057
:103d80008f814100a2f72f000f01410061f72f0042
:103d90008f8040000a00780020fe07008001780034
:103da0000300e00004003500030444003f3897009e
:103db0001004e000f0ff3a00e18f410003003a00f8
:103dc0000800e00001003a000304780008007800d1
:103dd0004f0578004f04be000080fa000000060086
:103de000889fbe008a9fbe008c9fbe008005780021
:103df0008106780002067800eb0c90000810200085
:103e00000c044400080178008000eb0009007800f1
:103e1000770207000000e0000100320009045000b2
:103e2000080578008c0f5400010036000c0578005e
:103e30000a017800890078000d0078003af6070042
:103e40000a804400f00d980008844400881598000a
:103e5000e80d98000a0078004f06be004f05be002e
:103e60004f04be0000000600800078001000200013
:103e700002022000828f500004003200e9805000ce
:103e8000e48f5000010036000000eb000000060047
:103e9000889fbe008a1f7800000578000a04780019
:103ea000984478000805e8000900fb00eeff0700d1
:103eb0000000e000f9ff3a00b0c2b30080cf540028
:103ec00005003200d0c2b3008000eb0080cf540068
:103ed00005003a00020037008000eb0001003700c7
:103ee000110020000804e8000000eb000300370088
:103ef000ea00b900020050000003b0003801fb00e6
:103f000003fd2f0082814100e98f5100f8ff360048
:103f10000100e00001003a000000ea004f057800cf
:103f20004f04be0000000600800078001000200052
:103f300002022000828f500004003200e98050000d
:103f4000e48f5000010036000000eb000000060086
:103f50006f02b000889fbe008a9fbe008c9fbe008b
:103f60008e1f780000067800010778008204780030
:103f7000d4af9f00e5af9f00f6af9f0087b79f00cb
:103f800040022000800f57007e003e00e10f5700e6
:103f90007c0032007c089000bc109000810f500023
:103fa00003003100b086fb00700e9800030037005c
:103fb0000c007800d4020700800678000d0078001d
:103fc000d9ff07000000e000f2ff3a00b002200035
:103fd000808f5600050032008002eb0085af9f0005
:103fe000d0022000808f560010003a00dd82b2001f
:103ff0000df0a7008d06ea008d06e900cfeede0089
:104000008daf9f007c089000bc109000810f500085
:1040100003003100b086fb00700e980003003700eb
:104020000c007800b8020700800678000e00e0005f
:1040300002003200f00f570043003a000003200056
:10404000808f56003d003a007c089000bc10900024
:10405000810f500003003100b086fb00700e980005
:10406000030037000c007800a702070080067800e4
:104070008d0078000150a00080072000808f500044
:104080002b003a007c089000bc109000810f50007b
:1040900003003100b086fb00700e9800030037006b
:1040a0000c0078009802070080067800e01a2100d2
:1040b000008046000e012000f6c0b300904f1300b0
:1040c0008c0036003c1090000000e000030032003d
:1040d000fc0890008100e900710e98000900e000e2
:1040e0000c0032006022b8006033b800d4af9f00eb
:1040f000e5af9f00f6af9f0087b79f000000e0008c
:10410000a20132007c0890000000e900700e9800c7
:104110009e0137006022b8006033b8000c007800c0
:10412000540207006000b8006011b8009301370026
:104130000e00e0009f013200170037000e00e00083
:1041400001003a00ae002000e01a21000080460085
:104150001080fb008e0f50000f0039003c109000c3
:104160000000e000030032007c0890000000e9003d
:10417000700e98006022b8006033b8000c00780020
:104180003c0207006001200020a788006022b800e0
:104190006033b80072013700ea0f570055003a004b
:1041a0000004eb000d0078000c003700ea44b90071
:1041b000000444000803b100fc0890003c1090008b
:1041c000808f5000030031003180fb00710e980099
:1041d000020037000c0078004b02070001fd2f00a1
:1041e00080804000e98f500003003e00819921004b
:1041f000810f5400edff3600800678008004eb004c
:104200006055b800120037001faa9700afaa9700a8
:104210003fab9700cfab97000004420081844a0077
:1042200002054b0083854b007c089000bc10900079
:10423000810f500003003100b086fb00700e980023
:10424000030037000c0078002f020700800678007a
:1042500005fd2f008582460095af9f00e98f520033
:104260000b013e009099290091992900929929000b
:10427000939921000040e10001c8e10002d0e10073
:1042800003d8e100dd003e00a4002000050020006e
:104290006033b8000800be000a01be008c1307009e
:1042a0001faa97008002eb006033b80094af9f0014
:1042b000a5af9f00b6af9f00c7af9f000482ea0082
:1042c0008582ea000683ea008783ea00d4b79f006c
:1042d000e5b79f00f6b79f0087bf9f000400e1008d
:1042e0000588e1000690e1000798e100c6ff36006e
:1042f000c20037000e00e9000e006000030032002b
:104300000004eb000d00780066003700f770b9007c
:104310004500de0067006000411a21000080400077
:104320009000fb000004eb000d0078008104780091
:104330000b0037000944dd0001047400fc08900004
:104340003c109000808f5000030031003180fb0052
:10435000710e9800020037000c007800ea01070097
:10436000e11a2100810040009180fb008e8f5000f7
:1043700003003100f27f2000820f5400edff360071
:1043800080067800890078008004eb006055b80052
:10439000f4ff2f00f5ff2f000403be00010078009a
:1043a0000000e900050033008703d1000683d30035
:1043b0008582d3000482d300f9ff37000d00780016
:1043c00081067800200037000d0178000201e90025
:1043d000050033000804d0008984d2000a85d20089
:1043e0008b85d200f9ff37000180fb008000eb00d5
:1043f0006011b80008047000898470000a0571001b
:104400008b857100fc0890003c109000808f50005c
:10441000030031003180fb00710e98000a00370064
:104420000c00780094b79f00a5b79f00b6b79f0017
:10443000c7b79f00b4010700cfb397003fb3970001
:10444000afb297001fb29700e11a2100810040002f
:10445000914078000181fb008e0f51006100310016
:104460000440e10005c8e10006d0e10007d8e10002
:10447000d5ff36005b0037008ec4b90008844000c9
:10448000fc0890003c109000808f50000300310029
:104490003180fb00710e9800020037000c0078009c
:1044a00099010700e11a2100810040009180fb0082
:1044b0008e8f500003003100b2712000820f540033
:1044c000edff3600800678008004eb006055b800f0
:1044d00098af9f00a9af9f00baaf9f00cbaf9f00de
:1044e000120037000002440081824c0002034d009c
:1044f00083834d0094af9f00a5af9f00b6af9f0090
:10450000c7af9f007c089000bc109000810f500046
:1045100003003100b086fb00700e980003003700e6
:104520000c0078007801070080067800e01a21006e
:104530000080460010407800e0cf9f008042780065
:104540000580fb008e0f5000280031006174b80018
:104550006055b8000802be000a03be00f0ff2f003d
:10456000f1ff2f000001be00701207001faa970084
:10457000afaa97003fab9700cfab97000020e100b8
:1045800001a8e10002b0e10003b8e10017003e001d
:104590000802be000a03be001fa89700afa897003c
:1045a0003fa99700cfa99700c9120700efca97004b
:1045b0000584fb008004eb006055b8000882ea0027
:1045c0008982ea000a83ea008b83ea000400e100a2
:1045d0000588e1000690e1000798e100c1ff360080
:1045e0000200370080067800040037001fac9700f7
:1045f000afac97003fad9700cfad9700e01a210018
:10460000008046001080fb008e0f5000200031001b
:104610000d00780009003700fc0890003c10900065
:10462000808f5000030031003180fb00710e980034
:10463000020037000c00780033010700e11a210066
:10464000010040001080fb008e0f5000f2ff390087
:104650002002200020a788005fab97000608a30077
:10466000070032005fac9700efac97007fad97007a
:104670008fb597008003eb0087af9f0004003700e1
:104680005fac9700efac97007fad97008fb59700b8
:104690003c1090000000e000030032007c08900015
:1046a0000000e900700e98005fa89700efa897003f
:1046b0007fa997008fb197000040e10001c8e10099
:1046c00002d0e10003d8e1001c0039000008a3007b
:1046d0000e003a008fa897000100e0000b003a009e
:1046e0002002200020a788005faa9700efaa970069
:1046f0007fab97008fb3970061025200e0825a00af
:1047000060035b00e0835b00150037005fa8970043
:10471000efa897007fa997008fb197000040e100b4
:1047200001c8e10002d0e10003d8e1000300360037
:104730002002200020a78800140037008fa89700cf
:10474000e18f40000b003a006000b8006011b80033
:1047500008025000898258000a0359008b835900cf
:10476000d4af9f00e5af9f00f6af9f0087b79f00d3
:10477000060037000800be000a01be00d0af9f004f
:10478000e1af9f00f2af9f0083b79f005fa8970043
:10479000efa897007fa997008fb197004f07780087
:1047a0004f06be004f05be004f04be006f02b100b1
:1047b000000006008e002000cefe3700800078004a
:1047c00002fd2f000101410010002000e90f5100ff
:1047d000050036000150a0001106b100e58f500021
:1047e000010036000000eb0000000600f3ff370078
:1047f0008180fb00010037000201e90080017800a0
:104800000008a300060032000200e000220032008f
:104810003082fb00810f5200f7ff3a00030037009f
:104820000000eb000200e0001d0032001380fb00de
:10483000810f50001b00320016102000868bb9003b
:10484000010037000281e90003007800e10f510008
:104850000a00360033026b00f5ef2f00848242001d
:104860000482ea0004826200050828000502620052
:10487000f4ff3200010037000201e90080017800f6
:104880000200e000050032003082fb00810f520080
:10489000f9ff3a0003003700000005000000eb00bc
:1048a0000000060003007800000006000100370049
:1048b0000201e9000200e000050032003042780009
:1048c000b1417800834f5200f9ff320001003700f8
:1048d000000005000480fb008381fb000300500002
:1048e00000000600889fbe008a9fbe0080047800fa
:1048f0000200e0005b00320001407800814c78004b
:1049000082814400f1f99f00e20f5100550036000a
:1049100091449800a1449800e1f99f00d1f99f00cb
:10492000e60f51004f003600b1449800c1f99f00d6
:10493000e80f51004b0036000905ea0063056500e9
:104940000a8444000a055100c1ff2f0001056500db
:104950000080fb008000eb001210200013102000ec
:10496000b00e0700008cbe000a01440060b99f0031
:1049700071b99f00e80f55003a00360020049800f6
:1049800031049800400498005104980020b99f0019
:1049900031b99f0040b99f0051b99f00f80f5500f1
:1049a000300036006004980071049800000c9800f4
:1049b000110c9800200c9800310c9800400c9800c5
:1049c000510c980020b19f0031b19f0040b19f0071
:1049d00051b19f0060b19f0071b19f0000b99f006d
:1049e00011b99f0064016400780141000204440091
:1049f000020555006011b8000203be000002be00af
:104a00000403be006022b8000000720081807200c2
:104a1000020173008381730010003700009cbe0008
:104a20000294be004004980051049800620498006b
:104a300073049800000c9800110c9800220c980048
:104a4000330c9800400c9800510c9800620c9800b0
:104a5000730c98000a02b1000802b000ff0f550065
:104a6000eeff3e00090078004f05be004f04be0077
:104a700000000600889fbe008a9fbe004410980078
:104a8000551098006610980077109800f008900074
:104a90002004900001045400cfc4de00614db90031
:104aa00008189800191898002a1898003b189800c0
:104ab000e00f5200e08f5a00e00f5b00e08f5b00d8
:104ac0000c0032000014900001045400cfc4de003a
:104ad000614db9000440e10005c8e10006d0e100e5
:104ae00007d8e1000300340004824000341098002d
:104af0000200370080109000311098004f05be0072
:104b00004f04be00000006002800fa00889fbe0087
:104b10008a1f780000047800f808900028009000b0
:104b200000805000081a9000981a9000281b9000ee
:104b3000b81b9000cf80de00040240008582480050
:104b4000068348008783480048109000d8109000e2
:104b500068119000f8119000e00f5000e08f5800ad
:104b6000e00f5900e08f5900050032000020e100fd
:104b700001a8e10002b0e10003b8e1000d003d0032
:104b800008007800d4b79f00e5b79f00f6b79f00f4
:104b900087bf9f00e4010700800478005fb29700a0
:104ba000efb297007fb397008fbb97000900e0003a
:104bb00016003d0078089000a8009000808050000a
:104bc0004f89de0004824000850249000603490047
:104bd00087034900041c9800151c9800261c9800a7
:104be000371c980030149800f0ff2f00f1ff2f00c1
:104bf0000001be00401498005114980062149800ff
:104c0000731498008084eb0052003700610042006a
:104c1000e0804a0060014b00e0814b0090bf9f00a4
:104c2000a1bf9f00b2bf9f00c3bf9f00481290006a
:104c3000d812900068139000f813900094b79f006a
:104c4000a5b79f00b6b79f00c7b79f00e00f5200ff
:104c5000e08f5a00e00f5b00e08f5b00280032001d
:104c6000780d9000081190000a0151006112b900fe
:104c7000612bb900d4af9f00e5af9f00f6af9f0056
:104c800087b79f001fb09700afb097003fb1970064
:104c9000cfb197001fba9700afba97003fbb9700fc
:104ca000cfbb9700040050008580580006015900d2
:104cb0008781590090af9f00a1af9f00b2af9f00c6
:104cc000c3af9f005faa9700efaa97007fab970042
:104cd0008fb397000020e10001a8e10002b0e100dd
:104ce00003b8e100060034009fb297001fbb970095
:104cf00006815200820045003114980002003700fe
:104d0000881390003714980028019000f80890004c
:104d1000810151001fba9700afba97003fbb9700bf
:104d2000cfbb97004f98de00048241008502480007
:104d30000603480087034800041c9800151c9800cf
:104d4000261c9800371c9800828f500001003e00fe
:104d5000f9f89f00090078004f0578004f04be0065
:104d60000080fa0000000600010178008001780050
:104d7000008268000408a300050032001300370019
:104d800032407800805978000004e00014003200be
:104d9000030278000208a300f9ff3a00030078003c
:104da000010037000318780082007800b201780013
:104db000f5ef2f00838242000382ea000482620042
:104dc0000508280005026200f6ff320000027800a4
:104dd00031417800025878000204e000fbff3a00fd
:104de0000400780000000600881f780001047800a5
:104df0008800780005000700904f14000100320081
:104e00000000eb004f04780000000600881f7800c7
:104e1000000478008180fb000a003a000800780056
:104e20002600070000004400220037001804e000bc
:104e3000200032000804e8001081fb00810f5100bf
:104e40001c003200080078000808a300f7ff3a00b1
:104e500014102000848ab900080178003800780016
:104e6000f5ef2f00808242008081ea008382620099
:104e7000030828008382620007003a0000006a00ed
:104e8000f5ef2f00808242000080ea00008062007f
:104e900083016000f0ff3200020078001204e0009d
:104ea000040032000201e8009081fb00818f510074
:104eb000f9ff3a004f0478000000060080007800f7
:104ec000040037003104e00002003a000000510005
:104ed00000000600010178000108a300f9ff3a0074
:104ee0008101780031017800f4ef2f0002024200c6
:104ef0000281ea0002016200040828000401610046
:104f0000f7ff320083007800010178003104e000ef
:104f1000fdff3a0000005100000006003c00fa00ce
:104f2000889fbe008a9fbe000004be000205780074
:104f30000f0078004004b1001d0009000018eb00cc
:104f400088a79f00d8af9f000080eb00e0af9f00d4
:104f50006022b8006033b800c0fb2f000f00400093
:104f6000c4fe0700120020008a007800c0fb2f005a
:104f70000f004000f00807006fb29700ffb29700e3
:104f80000fbb97009fbb9700dfad97000fa5970061
:104f90000900e000090032000a855500cfd5de0087
:104fa0000402450085824d0006834d0087834d0035
:104fb0000100320004044400880c78004f05be0054
:104fc0004f04be000080fa00000006000001eb0064
:104fd000d2ff0700e50c370012002000cfff0700ca
:104fe000e20c370022002000ccff3700f1fb2f003d
:104ff00080804000f98f500001003e000050a0006a
:1050000000000600f9ff3700f1f92f008080400012
:10501000f98f500001003e00f005b20000000600cc
:10502000f9ff37000200fa00881f780000047800ba
:10503000e2bf9f00648157000800780044fb07002e
:10504000980090000148a300010032000080eb00ae
:105050004f0478000080fa0000000600f287470045
:105060008e1f780002027800030178000000e00043
:1050700002003200000778000100370072875700f5
:105080008002eb000100e000010032008102e90033
:1050900070805700060009000018eb000080eb004c
:1050a00080bf9f002310200093bf9f00aebf9f00d2
:1050b000b1bf9f00c5bf9f000100e00003003d009d
:1050c000b104200021a7880006003700004feb0044
:1050d000eebf9f00debf9f00840078007080570005
:1050e000e20907004f0778002f01b1000000060019
:1050f000881f78000004780000082000808f50008e
:105100001a00350010082000808f50000d00340078
:1051100030082000808f500014003a009200780080
:10512000688050000009780010027800900290001a
:1051300020039000b0039000049cbe000694be00c3
:10514000080037009202780064805200000978005d
:1051500090009000100078005d0c0700009cbe00dd
:105160000294be0010002000010037000000eb0098
:105170004f04780000000600881f78001308200004
:10518000838f50001100320033082000838f5000bd
:105190000400320003082000838f500016003a00fc
:1051a0000a0037009280e900010978009100780038
:1051b000100278009002900020039000b00390004d
:1051c0008498be008690be00090037009280e900f6
:1051d00001097800110478009000900020019000ef
:1051e000b001900010007800600c0700008cbe0039
:1051f00010002000010037000000eb004f04780091
:105200000000060084082000848f50001d0032003a
:105210000d003c0014082000848f50001e00320056
:1052200002003c000408200004003700240820008d
:10523000848f50001e00320044082000848f5000ec
:105240002a003a0024003700040a2000848f50000e
:105250002100320004003c0004092000848f50002b
:1052600022003a0012003700020c2000828f50000a
:1052700019003200020f2000828f50001b003a00fc
:10528000150037009380e9008109780091007800cb
:1052900090487800140037009380e9008109780075
:1052a00091007800b0187800a01078000e00370048
:1052b0009380e9008109780091007800100278005d
:1052c0009002900020039000b00390008498be00ec
:1052d0008690be00040037009380e90081097800c1
:1052e000910078009008780010000500000005008b
:1052f000c06090000141e900814071004160980068
:1053000010019000e4006100040032000240a0009f
:10531000120098000080eb000000060001109800c9
:1053200071089800000005000200fa00889fbe0086
:105330000004780008007800a00a07008084eb00d1
:105340000000e00009003a009811900012002000cf
:10535000e68057000800780003000100e10f5000cc
:1053600002003a002ff897008084fb0009007800c3
:105370004f04be000080fa000000060080007800a4
:105380001000200002022000828f50000400320032
:10539000e9805000e48f5000010036000000eb006f
:1053a000000006000800fa00889fbe008a9fbe0029
:1053b000000478008105780078089000b81090000b
:1053c000810f500003003100b084fb00700c980086
:1053d0000300370008007800cbfd07008004780048
:1053e000b0022000808f5400040032000005eb0062
:1053f000d0022000808f54001b003a00d982b200f6
:1054000009f0a7008904ea008904e9004f4dde0095
:1054100078089000b8109000810f50000300310010
:10542000b084fb00700c980003003700080078007f
:10543000b5fd07008004780000fd2f000900400042
:10544000e90f5000080036000b00e00006003200b3
:10545000381090000000e00003003200780890004f
:105460000000e900700c980000fd2f0009004000ca
:105470008005eb00e90f5000130036003810900053
:105480000000e00072003200780890000000e9009f
:10549000700c98006e003700ea59b9008005410091
:1054a00078089000b8109000810f50000300310080
:1054b000b084fb00700c98000300370008007800ef
:1054c00091fd07008004780000fd2f0009004000d6
:1054d000e90f500003003e00b1cc2000818f550041
:1054e000edff3400615ab900612bb90084bf9f0001
:1054f00095bf9f00a6bf9f00b7bf9f001f0037004a
:10550000a4002000050020006033b8000fb8970009
:105510009fb897002fb99700bfb99700ec0e07000e
:10552000cfcdde000082440081824d0002834d0019
:1055300083834d000403b1000580b1000680b100f3
:105540000780b10084bf9f0095bf9f00a6bf9f004a
:10555000b7bf9f0078089000b8109000810f5000ee
:1055600003003100b084fb00700c9800030037008a
:105570000800780064fd07008004780000fd2f001b
:1055800009004000e90f500017003e00d07a2400c7
:1055900011ae270042e12a00731420000fba9700d1
:1055a0009fba97002fbb9700bfbb97000020e10078
:1055b00001a8e10002b0e10003b8e100d0ff34002f
:1055c0000900370078089000810f50000300310077
:1055d000b084fb00700c98000300370008007800ce
:1055e00049fd0700800478000903b100b81090005d
:1055f000e98f5400f3ff36000100e00003003200a1
:10560000780890000000e900700c98000a00e000a3
:10561000160032006000b8006011b8000fba9700a1
:105620009fba97002fbb9700bfbb970004025000a2
:1056300085825800060359008783590084bf9f0064
:1056400095bf9f00a6bf9f00b7bf9f000700370010
:105650006000b800020020000300280080bf9f0007
:1056600091bf9f00a2bf9f00b3bf9f000fb89700dc
:105670009fb897002fb99700bfb997004f05be009c
:105680004f04be000080fa00000006000f04b000c6
:10569000889fbe008a9fbe008c9fbe008e1f780030
:1056a00000067800b1a79f00c29f9f00a3a79f009c
