:020000040000fa
:080000000002040000000000f2
:020000040000fa
:04000800fa020000f8
:020000040000fa
:04000c003c030000b1
:020000040000fa
:040010009c0300004d
:020000040000fa
:040014001a030000cb
:020000040000fa
:040018005c03000085
:020000040000fa
:04001c007c03000061
:020000040000fa
:04002000bc0300001d
:020000040000fa
:04002400e8030000ed
:020000040000fa
:04002800e8030000e9
:020000040000fa
:04002c00e8030000e5
:020000040000fa
:04003000e8030000e1
:020000040000fa
:04003400e8030000dd
:020000040000fa
:04003800e8030000d9
:020000040000fa
:04003c00e8030000d5
:020000040000fa
:04004000e8030000d1
:020000040000fa
:04004400e8030000cd
:020000040000fa
:04004800e8030000c9
:020000040000fa
:04004c00e8030000c5
:020000040000fa
:04005000e8030000c1
:020000040000fa
:04005400e8030000bd
:020000040000fa
:04005800e8030000b9
:020000040000fa
:04005c00e8030000b5
:020000040000fa
:04006000e8030000b1
:020000040000fa
:04006400e8030000ad
:020000040000fa
:04006800e8030000a9
:020000040000fa
:04006c00e8030000a5
:020000040000fa
:04007000e8030000a1
:020000040000fa
:04007400e80300009d
:020000040000fa
:04007800e803000099
:020000040000fa
:04007c00e803000095
:020000040000fa
:04008000e803000091
:020000040000fa
:04008400e80300008d
:020000040000fa
:04008800e803000089
:020000040000fa
:04008c00e803000085
:020000040000fa
:04009000e803000081
:020000040000fa
:04009400e80300007d
:020000040000fa
:04009800e803000079
:020000040000fa
:04009c00e803000075
:020000040000fa
:0400a000e803000071
:020000040000fa
:0400a400e80300006d
:020000040000fa
:0400a800e803000069
:020000040000fa
:0400ac00e803000065
:020000040000fa
:0400b000e803000061
:020000040000fa
:0400b400e80300005d
:020000040000fa
:0400b800e803000059
:020000040000fa
:0400bc00e803000055
:020000040000fa
:0400c000e803000051
:020000040000fa
:0400c400e80300004d
:020000040000fa
:0400c800e803000049
:020000040000fa
:0400cc00e803000045
:020000040000fa
:0400d000e803000041
:020000040000fa
:0400d400e80300003d
:020000040000fa
:0400d800e803000039
:020000040000fa
:0400dc00e803000035
:020000040000fa
:0400e000e803000031
:020000040000fa
:0400e400e80300002d
:020000040000fa
:0400e800e803000029
:020000040000fa
:0400ec00e803000025
:020000040000fa
:0400f000e803000021
:020000040000fa
:0400f400e80300001d
:020000040000fa
:0400f800e803000019
:020000040000fa
:0400fc00e803000015
:020000040000fa
:04010000e803000010
:020000040000fa
:04010400e80300000c
:020000040000fa
:04010800e803000008
:020000040000fa
:04010c00e803000004
:020000040000fa
:04011000e803000000
:020000040000fa
:04011400e8030000fc
:020000040000fa
:04011800e8030000f8
:020000040000fa
:04011c00e8030000f4
:020000040000fa
:04012000e8030000f0
:020000040000fa
:04012400e8030000ec
:020000040000fa
:04012800e8030000e8
:020000040000fa
:04012c00e8030000e4
:020000040000fa
:04013000e8030000e0
:020000040000fa
:04013400e8030000dc
:020000040000fa
:04013800e8030000d8
:020000040000fa
:04013c00e8030000d4
:020000040000fa
:04014000e8030000d0
:020000040000fa
:04014400e8030000cc
:020000040000fa
:04014800e8030000c8
:020000040000fa
:04014c00e8030000c4
:020000040000fa
:04015000e8030000c0
:020000040000fa
:04015400e8030000bc
:020000040000fa
:04015800e8030000b8
:020000040000fa
:04015c00e8030000b4
:020000040000fa
:04016000e8030000b0
:020000040000fa
:04016400e8030000ac
:020000040000fa
:04016800e8030000a8
:020000040000fa
:04016c00e8030000a4
:020000040000fa
:04017000e8030000a0
:020000040000fa
:04017400e80300009c
:020000040000fa
:04017800e803000098
:020000040000fa
:04017c00e803000094
:020000040000fa
:04018000e803000090
:020000040000fa
:04018400e80300008c
:020000040000fa
:04018800e803000088
:020000040000fa
:04018c00e803000084
:020000040000fa
:04019000e803000080
:020000040000fa
:04019400e80300007c
:020000040000fa
:04019800e803000078
:020000040000fa
:04019c00e803000074
:020000040000fa
:0401a000e803000070
:020000040000fa
:0401a400e80300006c
:020000040000fa
:0401a800e803000068
:020000040000fa
:0401ac00e803000064
:020000040000fa
:0401b000e803000060
:020000040000fa
:0401b400e80300005c
:020000040000fa
:0401b800e803000058
:020000040000fa
:0401bc00e803000054
:020000040000fa
:0401c000e803000050
:020000040000fa
:0401c400e80300004c
:020000040000fa
:0401c800e803000048
:020000040000fa
:0401cc00e803000044
:020000040000fa
:0401d000e803000040
:020000040000fa
:0401d400e80300003c
:020000040000fa
:0401d800e803000038
:020000040000fa
:0401dc00e803000034
:020000040000fa
:0401e000e803000030
:020000040000fa
:0401e400e80300002c
:020000040000fa
:0401e800e803000028
:020000040000fa
:0401ec00e803000024
:020000040000fa
:0401f000e803000020
:020000040000fa
:0401f400e80300001c
:020000040000fa
:0401f800e803000018
:020000040000fa
:0401fc00e803000014
:020000040000fa
:04020000e80300000f
:020000040000fa
:04020400e80300000b
:020000040000fa
:04020800e803000007
:020000040000fa
:04020c00e803000003
:020000040000fa
:04021000e8030000ff
:020000040000fa
:04021400e8030000fb
:020000040000fa
:04021800e8030000f7
:020000040000fa
:04021c00e8030000f3
:020000040000fa
:04022000e8030000ef
:020000040000fa
:04022400e8030000eb
:020000040000fa
:04022800e8030000e7
:020000040000fa
:04022c00e8030000e3
:020000040000fa
:04023000e8030000df
:020000040000fa
:04023400e8030000db
:020000040000fa
:04023800e8030000d7
:020000040000fa
:04023c00e8030000d3
:020000040000fa
:04024000e8030000cf
:020000040000fa
:04024400e8030000cb
:020000040000fa
:04024800e8030000c7
:020000040000fa
:04024c00e8030000c3
:020000040000fa
:04025000e8030000bf
:020000040000fa
:04025400e8030000bb
:020000040000fa
:04025800e8030000b7
:020000040000fa
:04025c00e8030000b3
:020000040000fa
:04026000e8030000af
:020000040000fa
:04026400e8030000ab
:020000040000fa
:04026800e8030000a7
:020000040000fa
:04026c00e8030000a3
:020000040000fa
:04027000e80300009f
:020000040000fa
:04027400e80300009b
:020000040000fa
:04027800e803000097
:020000040000fa
:04027c00e803000093
:020000040000fa
:04028000e80300008f
:020000040000fa
:100400002f3921000eff27000e0188000000000098
:10041000000020000000e000020032000001200087
:100420002002880014000700eb0007000000e00035
:1004300003003a0000802300010020000200370082
:100440000000200001002000810f70000100320038
:100450000f000700000020000000e0000200320052
:100460000000020000000000c02f02000000000099
:100470000040da000000fe00c01c20000000e00088
:1004800002003200002020009001880000000600d9
:10049000a1028800800478000000eb001f003700f4
:1004a000e284440054a0b4009905ba00e2844400f8
:1004b00054a0b4009906ba00e284440054a0b400e9
:1004c0000006eb00476fde00fd07b200ae018800ba
:1004d000636ce10003003a000ad801000000eb0061
:1004e0000e003700606ce10008003a00004deb00a0
:1004f0000a05e800020039003420ec000af0a000f0
:100500008b05e900f9ff3e00040037006168e10057
:10051000010032000086eb000b00070019c7ba008b
:100520000e04e0001905ba0003003a000a00e000da
:10053000dbff3a0000000600fe07b200ae028800b2
:100540008a047800f5ff37000cd0a300e20f4d00bd
:100550001c003b0089027800354dba000a05e8000e
:10056000020039003420ec000af0a0008b05e900fd
:100570000f003200254dba000a05e80002003900dc
:100580003420ec000af0a0008b05e90008003200de
:100590000c00e0000600320015cdba000a05e800a4
:1005a000020039003420ec000af0a0008b05e900bd
:1005b0008984e80054a0b4000b00e000e2ff3a0098
:1005c000000006009902ba00055d78008b05e9007d
:1005d000f7ff3200c82ade00055d78008b05e900d0
:1005e000f3ff32000c00e000f1ff320019ddba0029
:1005f000eeff37003600f800809fbe00829fbe00ed
:10060000849fbe00869fbe000000fa00c028a9009b
:100610000000eb00691607000080fa004f03be00df
:100620004f02be004f01be004f00be003600f90071
:10063000004006003600f800809fbe00829fbe008a
:10064000849fbe00869fbe000000fa00621607006d
:10065000c048a90010002000581607000080fa00ca
:100660004f03be004f02be004f01be004f00be0050
:100670003600f900004006003600f800809fbe00fa
:10068000829fbe00849fbe00869fbe000000fa00cd
:10069000c068a90020002000481607000080fa006a
:1006a0004f03be004f02be004f01be004f00be0010
:1006b0003600f900004006003600f800809fbe00ba
:1006c000829fbe00849fbe00869fbe000000fa008d
:1006d000c088a90030002000381607000080fa000a
:1006e0004f03be004f02be004f01be004f00be00d0
:1006f0003600f900004006003600f800809fbe007a
:10070000829fbe00849fbe00869fbe000000fa004c
:10071000c0a8a90040002000281607000080fa00a9
:100720004f03be004f02be004f01be004f00be008f
:100730003600f900004006003600f800809fbe0039
:10074000829fbe00849fbe00869fbe000000fa000c
:10075000c608a90070002000181607000080fa00e3
:100760004f03be004f02be004f01be004f00be004f
:100770003600f900004006003600f800809fbe00f9
:10078000829fbe00849fbe00869fbe000000fa00cc
:100790002146800000022000008060000000e00090
:1007a00003003200c4a8a90090002000031607002f
:1007b00020468000700060000000e000030032006e
:1007c000c488a900a0002000fc150700ffff370027
:1007d0000040da000000fe00000005000001be003d
:1007e0001b0007000470a70003f0a10003f8a3009a
:1007f00013003a006509b10010003200090035000d
:100800006928e10002003500010028000000050011
:1008100000004000818048008502e900fcff3a00aa
:1008200000000600f88f4200050035008100d1006d
:100830000080d3008502e800fcff3a0000000600bb
:100840008000eb00000005006011b8008c0237004a
:10085000c70ade00f107b200f50fb200080032004f
:10086000e1cf4200020032000170a0002400050028
:10087000810f7000010032000408050044000500eb
:10088000810f700002003a00140005008502e900a3
:100890000000400081c04800fcff3b000170a00048
:1008a000240005006022b800060220000000d000ed
:1008b0008180d2000482d2008582d2000000a00094
:1008c0000202520083825a000300310002024200f9
:1008d00083824a000000a1000603e900f3ff3a000a
:1008e00000000600889fbe008a9fbe008c9fbe004d
:1008f0001b0020000202be000586680006002800da
:10090000060666004709de00f20fb20082003200e0
:100910000243e80080003200c729de00f30fb20076
:100920007d0032000343e8007b003200f107b20093
:100930000170a000f507b2000570a000c708dd0037
:100940004903de00868070004700dd00c72add0015
:100950004923de00868272004722dd000305510034
:10096000040350008583580003003100000040005c
:10097000818048000a05e9008c1f78008a9fbe002c
:1009800004005000858058000402420085824a001d
:1009900000004000818048000005eb000004be001c
:1009a0006033b8000406be000d48e1005600310077
:1009b000110009004dccd8000c01b8000d02b800a0
:1009c0008481410060824a008283530003045c00fa
:1009d00084845c0060055d000a00e00025003a00a8
:1009e000800578000d40e100490031008800780062
:1009f00007007800110009004d88d8000c01b800ec
:100a00000d02b8008481410060824a006003110039
:100a100083835b0004045c00e0845c000900e00068
:100a200021003a004f01be000300e0002b0032001d
:100a3000e3016000070673008c8171000100320041
:100a4000640070004200de004e5edd000c007000ad
:100a5000c258de0001e0a00083010700cf0178004a
:100a6000818071004f06be004f05be004f04be00de
:100a7000000006008c8343000d044c00e0844c0011
:100a800060054d000000e9000a00e000d4ff3200dc
:100a90008c8343000d044c00e0844c0060054d0045
:100aa0000000e900ceff37000c0343008d834b00ac
:100ab00060044c00e0844c000000e9000900e00004
:100ac000d8ff32000c0343008d834b0060044c00c0
:100ad000e0844c000000e900d2ff37004200de0055
:100ae0004e5edd000c007000c258de0001e0a00088
:100af000cf0178000300e000daff32006000100050
:100b0000e0801800d7ff3700f0ff2f00aaff370062
:100b1000f0ff2f00b9ff37000404be002f010700cb
:100b2000870678000004fd008104fd002b0107000a
:100b3000078366000678a300030032000960a7005f
:100b40000800be002c0037000d78a3000200320020
:100b50000800be00280037000778a30026003a00ee
:100b600001f0a10009f0a1000668a3000300320013
:100b7000f1ff2700f0ff2f00baff37000d68a30038
:100b8000030032000800be008c807000b5ff370003
:100b90000768a30007003a000648a30003003200dc
:100ba000f1ff2700f0ff2f00aeff37000d48a30034
:100bb000030032006000b8008c807000a9ff37008d
:100bc0000748a3000400320001f8270000002000bd
:100bd0008c807000a3ff3700760107000004fd0041
:100be0008104fd0002057800720107000802be00c2
:100bf0008a01780059ff37000160a000120220002e
:100c00001281880097ff37000100e00012003200d7
:100c10000500e00010003200889fbe008a9fbe00e1
:100c20008c9fbe000006eb0001f8a3000300320019
:100c300060001000e08018000cf0a00005f8a30090
:100c40000300320060021200e0821a000cf0a200e1
:100c50008005eb0041ff37006000b800020005008e
:100c6000038368000700280007036300470ade00cb
:100c70000480a100c71ade000580a100f70f200044
:100c80000720e100420032000728e1004000320066
:100c9000889fbe008a9fbe008c1f7800f107b200bb
:100ca000f307b2000400e000640032000170a0000d
:100cb0000500e000680032000370a00085054200d6
:100cc000eb07b1000204b8000302b80084844400ba
:100cd00060854a00020ab800848444000a854a00fc
:100ce000030ab80004054500040033000804d000de
:100cf0008984d2000a85d2008b05e9006158e100a1
:100d00003d003500021020000901610003082000a9
:100d100089816100f70720008783640008867300db
:100d2000c84cde00c853dd00878474004855de00df
:100d30000300e00006003200820376000400320067
:100d40008904e80060054d000a88a3000c003a0001
:100d5000f70f20000758e10044003d000a70a10091
:100d6000c75ddd000a8575008a0073000900780000
:100d70004f0678004f05be004f04be00000006007d
:100d80000a05d1008984d3008b05e800f0ff370005
:100d9000881f78000604780090000700070278009a
:100da0000001fd008101fd008c0007008702780032
:100db000850372000778a300050032000001fd00e2
:100dc0008101fd009f0007004f047800000006002d
:100dd000850372000748a30003003200f0ff2f00d4
:100de000f1ff2700f8ff37000000200001f827007e
:100df00088807000f4ff3700880178004848dd00e3
:100e0000808171004848de00c850dd00010070009c
:100e1000c850de00060478000b01780016000700b9
:100e200088807000d2ff37000500e0000500320026
:100e3000170020003a0007009dff37008103700073
:100e4000f9ff3a00860078004f0678004f05be0093
:100e50004f04be000000050083037100f9ff32005b
:100e6000270020002e00070094ff370001f827001c
:100e700086807000f4ff37000100e0002600320099
:100e8000610111007810e10023003c006022b800ed
:100e90007010e10004003500800278000100780045
:100ea0008000eb00700151000200e00009003400f6
:100eb00070031100062add00822ade008603dd00b1
:100ec000878272000200de00860bdd0007007000e2
:100ed0008208de0084817100f4ff27000482620032
:100ee0008481710004002800848262006102600035
:100ef00005f0a60000000600048271000700320021
:100f00000000e800e0804800000006000002be008b
:100f10006000b800efff37006000b8000000060076
:100f2000889fbe000004eb006138e10016003a0023
:100f30000100e00008003a00c800de004800dd00c3
:100f4000880020000100e00003003a00c800de0035
:100f50004800dd00680444008184cf00e984540027
:100f6000060034008908dd00f08314008703de00ea
:100f7000878070000900dd0009044400610214004c
:100f80004f04be00000006000300e00008003a0025
:100f9000c811de004811dd00880020000300e000d9
:100fa00003003a00c811de004811dd006804440067
:100fb0008384cf00e9845400060034008919dd00e1
:100fc000f08314008713de00878171000911dd00b2
:100fd00009044400e1021400e9ff37002700200063
:100fe00001f0a70017002000470bde00f60fb2004b
:100ff000040032000643e8000a0032004702b30052
:101000000000060001037800f607b2000603700036
:1010100002003a000703b300000006008702b30095
:101020000000060001037800f607b2000603700016
:10103000020032000770a000000006000760a00058
:10104000000006000478a300040032000578a30025
:10105000030032000168a30001003a000200be0054
:101060000160a0000000060081017000270032002e
:101070008002eb0001f8a3000300320060001000c2
:10108000e080180015002000f40720000202420052
:1010900020003400f70320008703600006042000ce
:1010a0000003630002082000000161004700de0029
:1010b000c909dd0000807100c708de000600e000fd
:1010c0000800320087037100060032001000b000f3
:1010d0000180b0000188a30002003200c108de00d8
:1010e0000402e800f107b200f30f20000320e10042
:1010f00003003d004722dd00810072002900370017
:1011000001f827000000eb00260037006000b8005f
:1011100000000600680212007f20e1000200340097
:101120006000b8001f0037006011b8007020e100b7
:101130000400350080017800010078008000eb0099
:10114000700252000400e00009003400f0031200b5
:101150000719dd008419de000703dd0086817100b8
:101160000400de00070bdd00060070008408de00ce
:10117000f7ff2700838363008703710006002800c0
:1011800003036300070032000700e00003003a0099
:101190006101600002817300020032001000b000a3
:1011a0000180b0000500a6000000060001f0a000cc
:1011b000000006004f0ade004709de00f107b2001a
:1011c000f20fb2000b003200f207b1000170a00074
:1011d000c708dd00c901de00838070004700dd0024
:1011e0000400a6000000060060001000e080180067
:1011f00000000600810f700001003a0000000600a8
:101200008182cf000500e00010003e008082cf0008
:10121000ee8242007028e1000400390007003e0021
:10122000800078000000eb000e0037007083120091
:101230008600de000500dd000a00370070835200e2
:101240008600dd000000eb0006003700e28252005d
:101250008508dd00708312000603de0086807000c2
:101260000500dd007507b0000501ea000400a600d6
:101270000000060060001000e0801800000006007a
:10128000889fbe008a9fbe00008270000402710029
:1012900004827100260032000004be000200be007d
:1012a0006011b8006b092000950220000182cf0078
:1012b0000a0039000541b1000082cf000700390063
:1012c0000541b1000982cf00040039000541b10099
:1012d0000882cf00010039000541b10005425200eb
:1012e000120032000a003b0082817100610164003b
:1012f0008100d1000080d3008984d3000884d3000a
:101300008b05e8000442e800f7ff3a0007003700c9
:101310000804440089844c00000048008180480093
:101320008b05e9000442e900f9ff3a0003000700d9
:101330004f05be004f04be000000060081002000e3
:10134000618055000b003d000b00200061fe2f0066
:101350000100e1001d003400828171006101640020
:101360008904d1000884d3000000e800faff3a00a5
:101370007100200061006400030070000200600042
:101380000900320061044400e0844c000988a50093
:10139000050032008b05e8006808e10002003a0011
:1013a0008904d1000884d300f20f20000258e10024
:1013b00005003d00c75ddd00f907b20089807500ba
:1013c00008007800000006000bf827008b0078006a
:1013d000000005000000fa0068815700cfb89700b0
:1013e000500207000080fa000000060061000700bc
:1013f000bc000700710107009b010700f200070015
:10140000a40207004b023700810178000002780037
:1014100030417800b14f510002003a000204e00070
:10142000f9ff3a009480fb001380fb00008050001d
:10143000000006008001eb000200e0001000320016
:101440000002780001037800b44178000304e00052
:1014500008003200b14278000504e00005003200c7
:1014600082034000848f53000200320085cf510078
:10147000f4ff32008381fb001680fb008081510065
:1014800003007800000006004400fa00889fbe00b8
:101490008a1f78000004be000205780094bf9f00f8
:1014a000a5bf9f00b6bf9f00c7bf9f000000eb0015
:1014b000c09f9f00a8af9f00d89f9f000080eb00b7
:1014c000b0af9f006022b8006033b80060fb2f000f
:1014d0000f0040005c0707001fba9700afba9700e3
:1014e0003fbb9700cfbb9700120020008a00780016
:1014f00060fb2f000f004000cd0407000900e00052
:10150000060032003fb29700afaa97000482420063
:10151000df9a970005025200840c44004f057800c2
:101520004f04be000080fa0000000600f4ff2f0008
:10153000f5ff2f000403be00d3ff37006022b80080
:101540000600200007002800cfff3700f4ff2f001f
:10155000f5ff2f006033b800cbff370004002000f8
:10156000050028006033b800c7ff3700f3ff3700dd
:10157000eeff3700ec874700889fbe008a9fbe00c1
:101580008c9fbe008e1f7800000678000104780052
:10159000180790002805900098067800cdb79f00a6
:1015a000b805900012027800920290002203900089
:1015b000b20390000400be000601be004f18de001a
:1015c0006011b8008000eb00d0b79f00e1b79f002a
:1015d000f2b79f0083bf9f00800478000900e000fd
:1015e000060032006000b8006011b800040250002c
:1015f0008582580006035900878359000e00e000d9
:10160000020035000d10a100cdb79f000900e000d9
:1016100005003a004fb097000028a30002003a00ee
:101620000038a300020032008a00e9000100370000
:101630008a007800f8815700a20020000800780096
:101640008b0007000900e00003003a00cfb09700cc
:101650000128a300080032000000e90000814500d5
:10166000b1c2b3000900e00001003200d1c2b300f2
:1016700001497800060037000138a3000400320059
:101680000000e9008080450002c2b3008248780073
:10169000480190000201e9000001510080804500ee
:1016a0004fb297008a0178000c00780044020700ce
:1016b0009c0090000188a300040032009800900074
:1016c000810f500001003d00010078004f077800b5
:1016d0004f06be004f05be004f04be00cf00b10054
:1016e000000006000200fa00889fbe008a9fbe002c
:1016f000800578000104780002007800180190004d
:101700002805900098007800b1bf9f00b8049000b1
:101710000200e000020035000110a100b1bf9f00ef
:10172000ea815700820020008a00780010027800c9
:101730009002900020039000b00390000800780011
:101740004b0007003fb99700f00061000400320031
:101750000000e9008080440002c3b30082487800a2
:101760003fb99700e8006100040032000000e90082
:101770008080440002c2b300824878004801900093
:101780000201e90000015100808044003fba970047
:101790008a0178000b007800090207009b00900086
:1017a0000188a3000400320098009000810f5000cf
:1017b00001003d00010078004f05be004f04be004f
:1017c0000080fa0000000600ea874700889fbe00fc
:1017d0008a9fbe008e1f7800000478000300780006
:1017e0007287570084e2260055c72600049fbe007a
:1017f000c3962200030f78006c875700004feb0060
:1018000011059000a1049000910578000200e0000d
:10181000020032000207780001003700728757008b
:101820000000e00002003a000e00780043070700c5
:101830000a00e000030035008a0f50000100360066
:101840000a0078000b027800890178000001780016
:101850008e00780008007800d90107004f07780053
:101860004f05be004f04be00af00b10000000600ef
:10187000f4874700889fbe008a9fbe008c9fbe00f1
:101880008e1f78000605be000404be0081bf9f00c5
:1018900082b79f00f3b79f00b0009000e1b79f00b0
:1018a0001301780092b79f009006900040009000ce
:1018b0000000e900000678000d00e00001003d0096
:1018c0001d002000efb19700008041000048eb00b0
:1018d0001e0020001f0037000c06e9000fb0970023
:1018e000cf80de006109b900a0b79f00b1b79f00ab
:1018f000c2b79f00d3b79f000203be000002be0024
:101900000800be000a01be00940807000007780026
:10191000efb097000c80400003c3b30003484700ba
:101920008d06e9000fb897000000e90080bf9f0016
:101930002fb29700bfb297004fb39700dfb3970065
:101940000800be000a01be007d0807000205be00b7
:101950000004be000c00e0000d003400e00f540055
:10196000e08f5c00e00f5d00e08f5d00daff3a0081
:101970000d00e000d8ff3c008fb897000100e000a8
:10198000030034001fb197000218a300d2ff3a00f1
:101990000e00e00002003a00ffb197001340a100e2
:1019a0000c0078004f0778004f06be004f05be00c0
:1019b0004f04be004f01b100000006000200fa0013
:1019c000889fbe008a9fbe00000578000104780051
:1019d0000200780018019000a80490009800780098
:1019e000b1bf9f00b80590000200e0000200350082
:1019f0000110a100b1bf9f00ea815700a2002000a2
:101a00008900780010027800900290002003900076
:101a1000b00390000800780095ff0700480190008f
:101a20000201e90000015100808045003fba9700a3
:101a3000890178000a007800610107009a0090008f
:101a40000188a3000400320098009000810f50002c
:101a500001003d00010078004f05be004f04be00ac
:101a60000080fa0000000600fa874700889fbe0049
:101a70008a9fbe008c9fbe008e1f78008004780075
:101a80000104780082057800180190002805900074
:101a900018077800b80090000200e000020035004e
:101aa0000e10a10001003700120020007000670036
:101ab000e0b79f000b0032001b0278009b029000f1
:101ac0002b039000bb039000e00f5200e08f5a0000
:101ad000e00f5b00e08f5b00020032008a86e900c5
:101ae000010037008a067800e8026700f5b79f001a
:101af000010032008d06e9001b0278009b02900075
:101b00002b039000bb039000e4af9f00f5af9f0054
:101b100086b79f0097b79f00480690000c06e90023
:101b20000c8040000048eb00efb297007fb29700b6
:101b30008903780081047800d8af9f000204780000
:101b40008bbf9f008a057800034578002b00370083
:101b50000c06e9006fab97006f006300e90f5000bf
:101b600002003c000003b000010037007005b00027
:101b70000a03fb001604b100f90f53000c003e00ed
:101b8000000378000650a0001606b100f90f5300bc
:101b900007003e00b4b79f00a5b79f00c7b79f00de
:101ba00085060700cfb39700afb297003fb297000a
:101bb0000c834400004b78000804e9008d06e9001e
:101bc0006fa89700ffa897000fb197009fb19700eb
:101bd000460020008301d1000281d3008180d30020
:101be0000080d3000603e900faff3a00e0af9f004f
:101bf000f1af9f0082b79f0093b79f00e10f56009f
:101c00000f0034006fa89700ffa897000fb197004e
:101c10009fb19700e00f5000e08f5800e00f59008f
:101c2000e08f5900caff3a000800e000c8ff3c00fe
:101c30000d00e000020034000e18a300c4ff3a00bb
:101c400089007800f4b79f00870478005fac9700a4
:101c50008a4178000b0578008fbd97000500e000f1
:101c6000140032001b0278009b0290002b039000ae
:101c7000bb039000e4af9f00f5af9f0086b79f00c5
:101c800097b79f00e00f5200e08f5a00e00f5b0013
:101c9000e08f5b00070032000c06e9000c8040007a
:101ca000034878000c06e9000c80400002c3b30032
:101cb00002487800ffb297000500e00004003200ff
:101cc0000c06e9000c80400002c2b3000248780014
:101cd000480190000201e9000c0151008c80400095
:101ce0000e0278008a01780009007800b40007002d
:101cf000990090000188a300040032009800900031
:101d0000810f500001003d00010078004f0778006e
:101d10004f06be004f05be004f04be00af01b1002c
:101d2000000006008201780001017800f1ff270021
:101d30002806370084082000848f50001d003200e0
:101d40000d003c0014082000848f50002700320052
:101d500002003c0004082000040037002408200092
:101d6000848f50003600320044082000848f5000d9
:101d700047003a003a003700040a2000848f5000e0
:101d80002900320004003c0004092000848f500028
:101d90003f003a002a003700020c2000828f5000da
:101da00033003200020f2000828f500038003a00ca
:101db0002f0037009380e9000200e00005003200a8
:101dc000810978001102fb00cfa2de00612bb9006f
:101dd0002c00370081097800114278000482fb0052
:101de0008002eb006033b800260037001302780051
:101df000e40052000200e000060032008109780091
:101e000011027800910290004fabde00860378004b
:101e10001c003700810978001102780091029000bf
:101e20006033b800170037009380e900810978001b
:101e300011027800cfa2de00612bb900110037003b
:101e400093027800e880520081097800110278003e
:101e50009102900021039000b10390000900370027
:101e60009380e9000200e00002003200efff37003b
:101e70009380e90081097800110278008002eb006c
:101e80006033b8000498be000690be001000050044
:101e90000000050044082000848f50002500320017
:101ea00008003c0014082000848f50001400320009
:101eb00024082000848f50002400320004082000f1
:101ec0000c00370004092000848f50001f003200ee
:101ed00004003c0084082000848f500024003a0055
:101ee0000e003700040a2000848f500011003200d9
:101ef000040c2000848f50001d003a000d003700b4
:101f00009380e90081097800910078000108780049
:101f1000cf91de008288be00140037009380e90074
:101f200081097800910078000108780082487800e3
:101f30000e0037009380e900810978009100780055
:101f40000108780082087800080037009380e900d3
:101f50008109780091007800010878006112b900c9
:101f6000612bb9008498be008690be001000050069
:101f700000000500889fbe00000478004800900023
:101f800082047800808f54000100360080047800bd
:101f900009017800580090004004070058009000a4
:101fa0000900400050049800c80090008984500047
:101fb000490498000048eb004f04be0000000600f2
:101fc000f2874700889fbe008a9fbe008c9fbe009c
:101fd0008e1f7800800478000105780002047800e4
:101fe000830578006107620002003a008b0f5400fd
:101ff00008003900080178008a007800090078009c
:10200000dcff07008b0f54000200390088057800c0
:102010001e003700088655000c017800f00f5600ae
:102020000100360002012000010220007e805700de
:10203000210407008c06780005003700020120000b
:10204000fe80570009007800caff0700f08656009e
:10205000ef8f5600f9ff3e004461de0000ff2f00c5
:102060008091b9000c014100fe8057000900780002
:10207000c0ff07000e00e00004003a0008017800ed
:102080008a00780009007800baff07000b0078008a
:102090004f0778004f06be004f05be004f04be003c
:1020a0002f01b1000000060000000500000005003f
:1020b00000000500000178000040eb008080fb007c
:1020c0008180400043372100818141001342780024
:1020d0000404e00004003a00503721008100400071
:1020e000114078000000060092017800934f5200e2
:1020f00005003a005037210081004000114078006f
:102100000309e800010037000040e800ea4f5000f2
:10211000eaff360000000600f6874700889fbe00f1
:102120008a9fbe008c9fbe008e1f7800000578003d
:102130000104780083057800040678000000eb00b5
:10214000c0b79f008080eb00d1b79f00e0b79f0031
:10215000f2b79f000008200080bf9f009800780021
:10216000010078008004eb00010037008904e800da
:10217000304178000204e0000300320053c2b30093
:10218000834f5100f9ff3a000900e00004003200db
:10219000090178000a00780076ff0700188c4400d7
:1021a0001807780050c2b3009e4f10003f013a005c
:1021b0000e07e8000e0c780010003700cfb0970033
:1021c0000100a0000b003700cfb097000110a00065
:1021d00008003700cfb097000120a00005003700ad
:1021e000cfb097000130a00002003700cfb09700b9
:1021f0000140a000c1b79f00000ce8001800780063
:1022000090407800b2c2b30082cf5000f1ff32009c
:1022100007003c0002c2b30082cf5000f0ff320042
:1022200032c2b30082cf500007003a00efff370000
:10223000d2c2b30082cf5000e0ff320002c3b3002d
:1022400082cf5000e0ff3200a2c2b30082cf500024
:102250000d003a00000ce8001c80e900000e780038
:1022600010007800e0b79f000000e0000f003d0084
:10227000cfb097000100a200c1b79f000000ea00a4
:10228000e0b79f000900370039010700e0b79f0061
:1022900001003700000ce800180078009000fb00f7
:1022a0000103b100e98f5000faff36004fb09700ec
:1022b0000008a300020032000010a100c0b79f0078
:1022c00018007800e1c2b30090cf100016003a0069
:1022d0008000eb00d1b79f000000e800000c780000
:1022e000a1c2b30090cf100006003a00000ce80035
:1022f0001c80e900000e780010007800d0b79f0025
:10230000090037001a010700d0b79f00010037000d
:10231000000ce800180078009000fb000103b100f9
:10232000e98f5000faff36000800780061ff0700cf
:1023300080467800180078001000fb009704070022
:1023400091062000810f50003800320012003c003e
:1023500041062000810f5000340032000a003c008a
:1023600011062000810f50002000320031062000ad
:10237000810f5000a000320051022000810f500058
:10238000bc003a00b400370071062000810f5000f5
:10239000b8003c008800370001072000810f500082
:1023a0005c00320007003c00e1062000810f500075
:1023b0007a003200f1062000810f5000ad003a0093
:1023c0003900370051072000810f500027003200ec
:1023d00081072000810f50004200320031072000a9
:1023e000810f5000a3003a008f0037008d80fb0062
:1023f0000c01780000fe2f000f0040009a04070037
:102400000000e000a800320018007800000ce8008e
:102410009041780002fe2f000f014100f880570024
:102420000a00780021ff07000e0037008d80fb00b6
:102430008c0178001200200000fe2f000f004000e9
:102440003cfe07000000e00097003200180ce80096
:1024500002fe2f000f014100f88057000a007800ab
:1024600044fc070080844400900037008d80fb000e
:102470008c0178000001eb0000fe2f000f004000ef
:102480002cfe07000000e00087003200180ce80076
:1024900002fe2f000f014100f88057000a0078006b
:1024a00046fd0700efff37008d80fb008c017800b0
:1024b0000001eb0000fe2f000f0040001dfe070092
:1024c0000000e00078003200180ce80002fe2f0047
:1024d0000f014100f88057000a00780081fc0700d6
:1024e000e0ff37008d80fb008c0178000001eb00dd
:1024f00000fe2f000f0040000efe07000000e0006d
:102500006900320018007800000ce8009041780063
:102510001c0037008c0178000001eb00010f200047
:1025200000fe2f000f00400002fe07000000e00048
:102530005d003200180ce8000fb097009fb09700c4
:102540002fb19700bfb19700e00f5000e08f580007
:10255000e00f5900e08f590009003a00cfb597000d
:102560006fb49700c0362100f40307000b02780017
:102570008801780000017800c1362100470037004b
:1025800083c7b30002fe2f000f014100f8805700ff
:102590000a00780034fd0700b2ff37000b814400c9
:1025a0008d80fb008c01780000fe2f000f004000a2
:1025b00038fe07003c0037008d80fb000c017800de
:1025c00000fe2f000f004000270407000000e0007d
:1025d0003500320018007800000ce80090417800c7
:1025e00002fe2f000f014100f88057000a0078001a
:1025f000aefe07009bff370000c8b30080cf560037
:1026000029003a00180ce8001c80e900000e780050
:1026100010407800e0df9f0013002000e2fd2f0053
:102620000f0141000800370000c8b30080cf5600fa
:102630001d003a00180ce8001c80e900000e78002c
:102640008001eb0010017800f88057000a00780044
:102650005dfc070083ff370000c8b30080cf560041
:1026600011003a00180ce8004fb29700efb1970044
:10267000080037000e0c78000000eb00c0b79f0088
:10268000e0b79f000080eb00d0b79f000002eb0096
:102690008401780012002000213721000a00780010
:1026a00047fe07006fff3700180ce80009007800ac
:1026b0004f0778004f06be004f05be004f04be0016
:1026c0006f01b100000006008200fa00889fbe0082
:1026d0008a1f78000005780082047800c13f9f00bf
:1026e0000004eb0010003700090278008801780030
:1026f000a2f72f000f01410081f72f008f804000cb
:102700000a00780084fe070008004000880f50008f
:1027100004003d00b0042000709c88000084eb00a1
:1027200004003700000478004f3897001004e000e0
:10273000edff3a00080078004f0578004f04be0016
:102740000080fa00000006008000780010002000e1
:1027500002022000828f500004003200e980500005
:10276000e48f5000010036000000eb00000006007e
:10277000889fbe008a1f7800000578000a04780050
:10278000984478000805e8000900fb00eeff070008
:102790000000e000f9ff3a00b0c2b30080cf54005f
:1027a00005003200d0c2b3008000eb0080cf54009f
:1027b00005003a00020037008000eb0001003700fe
:1027c000110020000804e8000000eb0003003700bf
:1027d000ea00b900020050000003b0003801fb001d
:1027e00003fd2f0082814100e98f5100f8ff360080
:1027f0000100e00001003a000000ea004f05780007
:102800004f04be0000000600800078001000200089
:1028100002022000828f500004003200e980500044
:10282000e48f5000010036000000eb0000000600bd
:102830006f02b000889fbe008a9fbe008c9fbe00c2
:102840008e1f780000067800010778008204780067
:10285000d4af9f00e5af9f00f6af9f0087b79f0002
:1028600040022000800f57007e003e00e10f57001d
:102870007c0032007c089000bc109000810f50005a
:1028800003003100b086fb00700e98000300370093
:102890000c00780091020700800678000d00780097
:1028a000d9ff07000000e000f2ff3a00b00220006c
:1028b000808f5600050032008002eb0085af9f003c
:1028c000d0022000808f560010003a00dd82b20056
:1028d0000df0a7008d06ea008d06e900cfeede00c0
:1028e0008daf9f007c089000bc109000810f5000bd
:1028f00003003100b086fb00700e98000300370023
:102900000c00780075020700800678000e00e000d9
:1029100002003200f00f570043003a00000320008d
:10292000808f56003d003a007c089000bc1090005b
:10293000810f500003003100b086fb00700e98003c
:10294000030037000c00780064020700800678005e
:102950008d0078000150a00080072000808f50007b
:102960002b003a007c089000bc109000810f5000b2
:1029700003003100b086fb00700e980003003700a2
:102980000c007800550207008006780060192100cd
:10299000008046000e012000f6c0b300904f1300e7
:1029a0008c0036003c1090000000e0000300320074
:1029b000fc0890008100e900710e98000900e00019
:1029c0000c0032006022b8006033b800d4af9f0022
:1029d000e5af9f00f6af9f0087b79f000000e000c3
:1029e000a20132007c0890000000e900700e9800ff
:1029f0009e0137006022b8006033b8000c007800f8
:102a0000110207006000b8006011b80093013700a0
:102a10000e00e0009f013200170037000e00e000ba
:102a200001003a00ae00200060192100008046003d
:102a30001080fb008e0f50000f0039003c109000fa
:102a40000000e000030032007c0890000000e90074
:102a5000700e98006022b8006033b8000c00780057
:102a6000f901070060012000709c88006022b80016
:102a70006033b80072013700ea0f570055003a0082
:102a80000004eb000d0078000c003700ea44b900a8
:102a9000000444000803b100fc0890003c109000c2
:102aa000808f5000030031003180fb00710e9800d0
:102ab000020037000c0078000802070001fd2f001b
:102ac00080804000e98f500003003e008199210082
:102ad000810f5400edff3600800678008004eb0083
:102ae0006055b800120037001faa9700afaa9700e0
:102af0003fab9700cfab97000004420081844a00af
:102b000002054b0083854b007c089000bc109000b0
:102b1000810f500003003100b086fb00700e98005a
:102b2000030037000c007800ec01070080067800f5
:102b300005fd2f008582460095af9f00e98f52006a
:102b40000b013e0090992900919929009299290042
:102b5000939921000040e10001c8e10002d0e100aa
:102b600003d8e100dd003e00a400200005002000a5
:102b70006033b8000800be000a01be005904070017
:102b80001faa97008002eb006033b80094af9f004b
:102b9000a5af9f00b6af9f00c7af9f000482ea00b9
:102ba0008582ea000683ea008783ea00d4b79f00a3
:102bb000e5b79f00f6b79f0087bf9f000400e100c4
:102bc0000588e1000690e1000798e100c6ff3600a5
:102bd000c20037000e00e9000e0060000300320062
:102be0000004eb000d00780066003700f770b900b4
:102bf0004500de0067006000c11821000080400031
:102c00009000fb000004eb000d00780081047800c8
:102c10000b0037000944dd0001047400fc0890003b
:102c20003c109000808f5000030031003180fb0089
:102c3000710e9800020037000c007800a701070011
:102c400061192100810040009180fb008e8f5000af
:102c500003003100f27f2000820f5400edff3600a8
:102c600080067800890078008004eb006055b80089
:102c7000f4ff2f00f5ff2f000403be0001007800d1
:102c80000000e900050033008703d1000683d3006c
:102c90008582d3000482d300f9ff37000d0078004d
:102ca00081067800200037000d0178000201e9005c
:102cb000050033000804d0008984d2000a85d200c0
:102cc0008b85d200f9ff37000180fb008000eb000c
:102cd0006011b80008047000898470000a05710052
:102ce0008b857100fc0890003c109000808f500094
:102cf000030031003180fb00710e98000a0037009c
:102d00000c00780094b79f00a5b79f00b6b79f004e
:102d1000c7b79f0071010700cfb397003fb397007b
:102d2000afb297001fb297006119210081004000e7
:102d3000914078000181fb008e0f5100610031004d
:102d40000440e10005c8e10006d0e10007d8e10039
:102d5000d5ff36005b0037008ec4b9000884400000
:102d6000fc0890003c109000808f50000300310060
:102d70003180fb00710e9800020037000c007800d3
:102d80005601070061192100810040009180fb007d
:102d90008e8f500003003100b2712000820f54006a
:102da000edff3600800678008004eb006055b80027
:102db00098af9f00a9af9f00baaf9f00cbaf9f0015
:102dc000120037000002440081824c0002034d00d3
:102dd00083834d0094af9f00a5af9f00b6af9f00c7
:102de000c7af9f007c089000bc109000810f50007e
:102df00003003100b086fb00700e9800030037001e
:102e00000c00780035010700800678006019210069
:102e10000080460010407800e0cf9f00804278009c
:102e20000580fb008e0f5000280031006174b8004f
:102e30006055b8000802be000a03be00f0ff2f0074
:102e4000f1ff2f000001be003d0307001faa9700fd
:102e5000afaa97003fab9700cfab97000020e100ef
:102e600001a8e10002b0e10003b8e10017003e0054
:102e70000802be000a03be001fa89700afa8970073
:102e80003fa99700cfa9970096030700efca9700c4
:102e90000584fb008004eb006055b8000882ea005e
:102ea0008982ea000a83ea008b83ea000400e100d9
:102eb0000588e1000690e1000798e100c1ff3600b7
:102ec0000200370080067800040037001fac97002e
:102ed000afac97003fad9700cfad970060192100d0
:102ee000008046001080fb008e0f50002000310053
:102ef0000d00780009003700fc0890003c1090009d
:102f0000808f5000030031003180fb00710e98006b
:102f1000020037000c007800f00007006119210062
:102f2000010040001080fb008e0f5000f2ff3900be
:102f300020022000709c88005fab97000608a30069
:102f4000070032005fac9700efac97007fad9700b1
:102f50008fb597008003eb0087af9f000400370018
:102f60005fac9700efac97007fad97008fb59700ef
:102f70003c1090000000e000030032007c0890004c
:102f80000000e900700e98005fa89700efa8970076
:102f90007fa997008fb197000040e10001c8e100d0
:102fa00002d0e10003d8e1001c0039000008a300b2
:102fb0000e003a008fa897000100e0000b003a00d5
:102fc00020022000709c88005faa9700efaa97005b
:102fd0007fab97008fb3970061025200e0825a00e6
:102fe00060035b00e0835b00150037005fa897007b
:102ff000efa897007fa997008fb197000040e100ec
:1030000001c8e10002d0e10003d8e100030036006e
:1030100020022000709c8800140037008fa89700c1
:10302000e18f40000b003a006000b8006011b8006a
:1030300008025000898258000a0359008b83590006
:10304000d4af9f00e5af9f00f6af9f0087b79f000a
:10305000060037000800be000a01be00d0af9f0086
:10306000e1af9f00f2af9f0083b79f005fa897007a
:10307000efa897007fa997008fb197004f077800be
:103080004f06be004f05be004f04be006f02b100e8
:10309000000006008e002000cefe37008001780080
:1030a00002003700b15978000201e9000200e00097
:1030b000fcff3a0000000600889fbe008a9fbe0009
:1030c000800478000200e0005b00320001407800dc
:1030d000814c780082814400f1f99f00e20f510099
:1030e0005500360091449800a1449800e1f99f00f2
:1030f000d1f99f00e60f51004f003600b14498000f
:10310000c1f99f00e80f51004b0036000905ea00a5
:10311000630565000a8444000a055100c1ff2f00c1
:10312000010565000080fb008000eb00121020000c
:1031300013102000e1010700008cbe000a014400ca
:1031400060b99f0071b99f00e80f55003a00360042
:10315000200498003104980040049800510498001d
:1031600020b99f0031b99f0040b99f0051b99f001d
:10317000f80f550030003600600498007104980084
:10318000000c9800110c9800200c9800310c98004d
:10319000400c9800510c980020b19f0031b19f0065
:1031a00040b19f0051b19f0060b19f0071b19f007d
:1031b00000b99f0011b99f006401640078014100cb
:1031c00002044400020555006011b8000203be006d
:1031d0000002be000403be006022b80000007200be
:1031e0008180720002017300838173001000370038
:1031f000009cbe000294be00400498005104980058
:103200006204980073049800000c9800110c980058
:10321000220c9800330c9800400c9800510c980038
:10322000620c9800730c98000a02b1000802b0000a
:10323000ff0f5500eeff3e00090078004f05be006d
:103240004f04be0000000600889fbe008a9fbe009b
:103250004410980055109800661098007710980058
:10326000f00890002004900001045400cfc4de0058
:10327000614db90008189800191898002a1898008c
:103280003b189800e00f5200e08f5a00e00f5b00ff
:10329000e08f5b000c003200001490000104540029
:1032a000cfc4de00614db9000440e10005c8e10073
:1032b00006d0e10007d8e10003003400048240009a
:1032c00034109800020037008010900031109800f0
:1032d0004f05be004f04be00000006002800fa00a3
:1032e000889fbe008a1f780000047800f8089000cc
:1032f0002800900000805000081a9000981a900052
:10330000281b9000b81b9000cf80de000402400014
:103310008582480006834800878348004810900053
:10332000d810900068119000f8119000e00f500044
:10333000e08f5800e00f5900e08f5900050032007f
:103340000020e10001a8e10002b0e10003b8e100c3
:103350000d003d0008007800d4b79f00e5b79f003e
:10336000f6b79f0087bf9f00e10007008004780048
:103370005fb29700efb297007fb397008fbb9700c3
:103380000900e00016003d0078089000a8009000b9
:10339000808050004f89de00048240008502490091
:1033a0000603490087034900041c9800151c980077
:1033b000261c9800371c980030149800f0ff2f004e
:1033c000f1ff2f000001be00401498005114980036
:1033d00062149800731498008084eb005200370048
:1033e00061004200e0804a0060014b00e0814b0038
:1033f00090bf9f00a1bf9f00b2bf9f00c3bf9f00af
:1034000048129000d812900068139000f8139000b2
:1034100094b79f00a5b79f00b6b79f00c7b79f009e
:10342000e00f5200e08f5a00e00f5b00e08f5b007e
:1034300028003200780d9000081190000a01510018
:103440006112b900612bb900d4af9f00e5af9f00b6
:10345000f6af9f0087b79f001fb09700afb09700ef
:103460003fb19700cfb197001fba9700afba97004e
:103470003fbb9700cfbb97000400500085805800e9
:10348000060159008781590090af9f00a1af9f00ae
:10349000b2af9f00c3af9f005faa9700efaa97004b
:1034a0007fab97008fb397000020e10001a8e100f7
:1034b00002b0e10003b8e100060034009fb29700bb
:1034c0001fbb97000681520082004500311498000e
:1034d00002003700881390003714980028019000ec
:1034e000f8089000810151001fba9700afba970009
:1034f0003fbb9700cfbb97004f98de00048241008e
:10350000850248000603480087034800041c980011
:10351000151c9800261c9800371c9800828f5000bc
:1035200001003e00f9f89f00090078004f0578007f
:103530004f04be000080fa00000006008000780002
:10354000040037003104e00002003a00000051009e
:1035500000000600010178000108a300f9ff3a000d
:103560008101780031017800f4ef2f00020242005f
:103570000281ea00020162000408280004016100df
:10358000f7ff320083007800010178003104e00089
:10359000fdff3a000000510000000600f1fb2f0083
:1035a00080804000f98f500001003e000050a000d4
:1035b00000000600f9ff3700f1f92f00808040007d
:1035c000f98f500001003e00f005b2000000060037
:1035d000f9ff3700f28747008e1f7800020278005b
:1035e000030178000000e0000200320000077800cc
:1035f00001003700728757008002eb000100e000f5
:10360000010032008102e9007080570006000900c5
:103610000018eb000080eb0080bf9f00231020000b
:1036200093bf9f00aebf9f00b1bf9f00c5bf9f006b
:103630000100e00003003d00b1042000719c8800ff
:1036400006003700004feb00eebf9f00debf9f007b
:1036500084007800708057003a0007004f07780018
:103660002f01b10000000600881f780000047800d8
:1036700000082000808f50001a003500100820003c
:10368000808f50000d00340030082000808f5000e3
:1036900014003a0092007800688050000009780019
:1036a000100278009002900020039000b003900078
:1036b000049cbe000694be00080037009202780009
:1036c000648052000009780090009000100078009b
:1036d0005b000700009cbe000294be0010002000aa
:1036e000010037000000eb004f04780000000600e6
:1036f0000200fa00889fbe000004780008007800ed
:103700001e0007008084eb000000e00009003a0082
:103710009811900012002000e68057000800780001
:1037200003000100e10f500002003a002ff897005b
:103730008084fb00090078004f04be000080fa007e
:10374000000006000200fa00881f780000047800dc
:10375000e2bf9f006481570008007800dafb070091
:10376000980090000148a300010032000080eb00a7
:103770004f0478000080fa0000000600881f7800df
:1037800000047800486090008040e90000c07000ac
:1037900040649800d800900068009000808f50002e
:1037a00005003600b80990000001eb0082007800a7
:1037b00008007800030001000000eb00200c9800d6
:1037c0006004980050049800980090000118a3002d
:1037d000030032000140a0001104980008003700e7
:1037e000280190003800900000004100001498006b
:1037f000700c98000000eb000138a30001003200bb
:103800000080eb004f047800000006000200370043
:103810000000060000000500fdff0700809c8000fe
:103820008000eb00fbff0700809c80008000eb0025
:10383000f8ff0700809c80008000eb00f5ff370058
:103840008103780002f407000001be006000b800a8
:103850000478a30013003a006220e10015003e0046
:103860000d0039008301d1000281d3008180d30093
:103870008301d1000281d3008180d3008301d10074
:103880000281d3008180d3000538b000c42add0056
:10389000f300b2008381720007f0a70003f0a000dc
:1038a0000000060083ff2700020020006110b9001d
:1038b000f9ff370003ff2700f7ff3700020ab900be
:1038c000001bb9000200b8008100420081004300e3
:1038d00000000600889fbe008a9fbe0030044200a0
:1038e000b0844a0030054b0090854b006000b10069
:1038f0000898be000a90be000440e10005c8e1003f
:1039000006d0e10007d8e100020031006800400065
:103910001008e8004f05be004f04be00000006007e
:10392000889fbe008a9fbe0010047800900490001b
:1039300020059000b00590000418540005985c0024
:1039400006185d0007985d00110020000440e100aa
:1039500005c8e10006d0e10007d8e1000100390008
:103960008000eb00108810004f05be004f04be0021
:10397000000006001200fa00889fbe008a9fbe0069
:103980008c9fbe00e0b79f00f1b79f0082bf9f00f1
:1039900093bf9f000605be000404be000000eb00bc
:1039a000d0b79f00c0b79f00b0b79f00a0b79f00df
:1039b00090b79f00000678005fb19700cfb09700e6
:1039c000820141003fb097000200e00004003d008a
:1039d000370007007e805700beff07000300370056
:1039e000330007007e805700cdff0700dfb6970049
:1039f0000d00e0000c0035006fb29700ffb2970099
:103a00000fbb97009fbb9700100020000100200013
:103a10006011b8000002720081827200020373001c
:103a2000838373001b0007000c06e80001042000dc
:103a3000810f5600e0ff3a000d00e00004003d0059
:103a40000802be000a03be007e805700a1ff0700e7
:103a50005fa897000000e00005003a001fb2970041
:103a6000afb297003fb39700cfb3970009000700ac
:103a70006fb09700ffb097000fb997009fb99700fc
:103a80004f06be004f05be004f04be000080fa0086
:103a9000000006000100070000000600a4b79f0018
:103aa000b5b79f00c6b79f00d7b79f0000000600bc
:103ab0004f09de0082817100b3b79f004f01de0025
:103ac0008180400082807000a1b79f008fb0970076
:103ad0004f09de00000040000200700090b79f0018
:103ae0007fa897004f01de00818040008280700037
:103af00081b79f000d0007004f3ade000000400034
:103b000004007000f0af9f000800070004024200ac
:103b100085824a0006034b0087834b00dfff0700c6
:103b20000802be000a03be00000006002fb2970084
:103b3000bfb297004fb39700dfb3970000000600b5
:103b4000881f780018002000881f780089ff070070
:103b50008f87e9004f04780000000600801feb000b
:103b600084ff07008f87e90000000600889fbe00e1
:103b70008a9fbe00e00f5000e08f5800e00f590010
:103b8000e08f59000c003d006044b8006055b8005b
:103b90000000540081805c0002015d0083815d00b3
:103ba000180020001500070008003d00180007005d
:103bb0000004eb00050037000004eb000f000700d5
:103bc00002003d001200070018002000dcff070083
:103bd0000800e000060032006022b8006033b80040
:103be0000000520081805a0002015b0083815b006b
:103bf0004f05be004f04be0000000600e00f52005b
:103c0000e08f5a00e00f5b00e08f5b0000000600d1
:103c10006044b8006055b8000402540085825c001e
:103c200006035d0087835d0000000600889fbe00dc
:103c30008a9fbe008c1f7800e00f5000e08f580074
:103c4000e00f5900e08f59000d003d006044b800be
:103c50006055b8000000540081805c0002015d00e6
:103c600083815d001c0020000820e10009a8e1001c
:103c70000ab0e1000bb8e1000d003d00080037007c
:103c80000006eb00e00f5200e08f5a00e00f5b00ef
:103c9000e08f5b0006003d006044b8006055b8004e
:103ca0000402540085825c0006035d0087835d008a
:103cb000aaff07000c00e000060032006022b800f6
:103cc0006033b8000000520081805a0002015b009e
:103cd00083815b004f0678004f05be004f04be0095
:103ce00000000600889fbe008a9fbe008c1f7800df
:103cf0000006eb00e00f5000e08f5800e00f590085
:103d0000e08f590007003d006044b8006055b800de
:103d10000000540081805c0002015d0083815d0031
:103d20001c002000e00f5200e08f5a00e00f5b0003
:103d3000e08f5b0007003d006044b8006055b800ac
:103d40000402540085825c0006035d0087835d00e9
:103d50000c00a2000c0007000c00e000060032007e
:103d60006022b8006033b8000000520081805a0021
:103d700002015b0083815b004f0678004f05be00a7
:103d80004f04be0000000600889fbe008a9fbe0050
:103d90008c9fbe000404b8000506b80089044600e4
:103da00060854e000606b8000a054600e0854e0014
:103db0000706b8008b054600040eb80089044600cb
:103dc0000a854e00e0854d00050eb8000a05460044
:103dd0008b854e00060eb8008b0546000416b80011
:103de0000a0546008b854e000516b8008b05460077
:103df000041eb8008b0546000800be000a01be0084
:103e00004f06be004f05be004f04be000000060076
:020000040000fa
:103e1000ffff000001ff0000ff020000ffff0000a5
:103e200002190000ff02000001ff000002ff000075
:103e3000ff030000f1ff000002090000ff03000083
:103e4000ffff000003000000ff0200000aff000067
:103e500001ff0000ff01000023ff0000000d000033
:103e6000ff0100005aff000001ff0000ff010000f9
:103e70000dff000003000000ff02000000ff000033
:103e800001f40000ff030000ffff0000010a000032
:103e9000ff020000ffff000001920000ff0200008f
:103ea00000ff000003280000ff0300000aff0000dd
:103eb000020a0000ff020000ffff000002ff0000f6
:103ec000ff020000ffff000002ff0000ff020000f1
:103ed000ffff000001ff0000ff010000ffff0000e6
:103ee00002ff0000ff02000000ff000002000000cf
:103ef000ff02000000ff000002ff0000ff020000c0
:103f0000ffff000002ff0000ff02000004ff0000ae
:103f100002020000ff010000e0ff000001040000b9
:103f2000ff01000080ff0000010a0000ff01000007
:103f30005354000057420000520000005354000048
:103f40005341000054490000005300005453000046
:103f50004449000000530000545300004031000069
:103f60000025000030320000583a000025300000e3
:103f7000325800002025000063200000000d0000e2
:103f80000a0000000d0a00005541000052540000d4
:103f90003120000062610000756400007261000061
:103fa000746500003a200000000d00000a53000074
:103fb0006176000065640000204100005449000063
:103fc0002064000065760000696300006520000041
:103fd000494400002053000074720000696e000024
:103fe000673a0000200000000d0a00005361000045
:103ff00076650000642000004861000072640000e3
:104000007761000072650000204900004420000034
:1040100064650000766900006365000020490000c7
:104020004420000053740000726900006e670000b5
:104030003a200000000d00000a53000061760000e5
:10404000656400002040000031200000646500002d
:10405000736300007269000070740000696f0000f3
:104060006e20000064650000766900006365000052
:1040700020490000442000005374000072690000d1
:104080006e6700003a20000000000000535400005a
:1040900042520000540000003f0000005354000052
:1040a00042520000004f00004b0d00000053000082
:1040b000544e000032310000323000002076000003
:1040c000302e0000302e0000300000000d4f0000a8
:1040d0004b0a0000005300005453000042520000fd
:1040e00000530000545500004643000000530000f8
:1040f0005457000042520000002500006c7500007b
:1041000000530000544400004900000053540000d4
:1041100044490000435000004f0000005354000089
:10412000490000005354000053410000544900006e
:1041300000530000545300004449000000530000a5
:10414000545300004e000000535400005340000040
:1041500031000000415400005050000053000000a6
:1041600041540000504f0000430000004154000043
:1041700050500000520000000d4f00004b000000a6
:10418000415400005050000054000000454c000015
:104190004d3300003237000020760000312e000041
:0841a000346200000d00000074
:020000040000fa
:1041a8000600fa00200798000000eb00000f7800d6
:1041b8000c0037000000eb001007980004003700df
:1041c800000000001e0090000000e80010079800a2
:1041d8009e009000300b2000808f5000f8ff3600c2
:1041e8001e0fe8002e0090009e007800808f50007f
:1041f800f0ff39000080fa00000006000000fa0015
:10420800ffff37000000fa00ffff37000000fa0048
:1042180000002300011020002c0d0700b08088004a
:10422800c18088000080fa00000006000200fa0041
:10423800f6ff070050052000a10a2000af0c070078
:10424800b0808000c1808000db0c07001af0b70046
:104258001ad0bf000004a2000004e00001003200f0
:10426800e6ff07000000eb00000f7800740037003d
:104278001e00780000004000000378001e0078004f
:10428800e300b900e300b90081f029000080400094
:10429800104078000080fb008000eb00c001dd00ca
:1042a800020020001e007800e300b900e300b90016
:1042b8000000e80081f029000080400010407800ec
:1042c8000082fb008002eb004828dd00c820de00e9
:1042d800810070004820dd000001710081817100bb
:1042e8001e007800e300b9000000e800e300b90010
:1042f80081f0290000804000104078000080fb0019
:104308008000eb000000710081807100c231dd0087
:10431800c20e2100028141000089be001e00780003
:10432800000040000003e8001e007800e300b90028
:104338000000e800e300b9000000e80081f029006f
:1043480000804000104078000080fb008000eb00f7
:10435800c001dd00020020001e007800e300b90063
:104368000080e800e300b90081f0290000804000e7
:10437800104078000082fb008002eb004828dd0036
:10438800c820de00810070004820dd0000017100b7
:10439800818171001e007800e300b9000080e80008
:1043a800e300b9000000e80081f029000080400027
:1043b800104078000080fb008000eb0000007100d6
:1043c80081807100c231dd00c20e210002814100ee
:1043d8000089be001e007800000040000000e800d0
:1043e800c200dd00c00e21000080400010017800ee
:1043f800900190001e00780000004000c200dd001f
:10440800c00e21000080400090009000100078004d
:104418001e0278004222dd006123b900b4808000ca
:10442800c58080000603420087834a000202be005e
:104438000001be000600be006d0c07001e0fe8005c
:104448001e007800ef0f500089ff3400300c070081
:104458000080fa00000006000c00fa0040079800ef
:104468005107980069ff070050052000a10a2000a5
:10447800220c070081f929004e009000e0f30700a4
:104488000000e00075003a000000eb00000f780023
:104498006f0037001e00780000004000000378001d
:1044a8001e007800e600b900de00900000804000a1
:1044b800104078000000fb00cf80de00c001dd0066
:1044c800020020001e007800e600b9000000e800a5
:1044d800de00900000804000104078000002fb00e1
:1044e800cfa2de004828dd00c820de008100700071
:1044f8004820dd0000017100818171001e007800f4
:10450800e600b9000080e800de009000008040006e
:10451800104078000000fb00cf80de000000710032
:1045280081807100c231dd00c20e2100028141008c
:104538000089be001e007800000040000003e8006b
:104548001e007800e600b90063004000de0090001d
:1045580000804000104078000000fb00cf80de00a3
:10456800c001dd00020020001e007800e600b9004e
:1045780064004000de009000008040001040780099
:104588000002fb00cfa2de004828dd00c820de00c4
:10459800810070004820dd000001710081817100f8
:1045a8001e007800e600b90065004000de009000bb
:1045b80000804000104078000000fb00cf80de0043
:1045c8000000710081807100c231dd00c20e21003f
:1045d800028141000089be001e00780000004000f2
:1045e8000000e800c200dd00c00e2100008040008d
:1045f80010017800900190001e0078000000400033
:10460800c200dd00c00e2100008040009000900034
:10461800100078001e0278004222dd006123b900f4
:10462800b4808000c58080000602420087824a006c
:104638000403be004604b0000780b0000202be00ba
:104648000001be000600be00e90b07001e0fe800cf
:104658001e007800e10f50008eff3400e1f92900b8
:104668004e00900066f307000000e00077003a0073
:104678000000eb0010079800710037001e00900042
:1046880000004000000378001e009000e600b9001a
:10469800de00900000804000104078000000fb0021
:1046a800cf80de00c001dd00020020001e00900067
:1046b800e600b9000000e800de009000008040003d
:1046c800104078000002fb00cfa2de004828dd0081
:1046d800c820de00810070004820dd000001710064
:1046e800818171001e009000e600b9000080e8009a
:1046f800de00900000804000104078000000fb00c1
:10470800cf80de000000710081807100c231dd00c1
:10471800c20e2100028141000089be001e009000e7
:10472800000040000003e8001e009000e600b90009
:1047380063004000de0090000080400010407800d8
:104748000000fb00cf80de00c001dd000200200079
:104758001e009000e600b90064004000de009000f2
:1047680000804000104078000002fb00cfa2de006d
:104778004828dd00c820de00810070004820dd00e8
:1047880000017100818171001e009000e600b900ef
:1047980065004000de009000008040001040780076
:1047a8000000fb00cf80de000000710081807100f6
:1047b800c231dd00c20e2100028141000089be0025
:1047c8001e009000000040000000e800c200dd006c
:1047d800c00e210000804000100178009001900078
:1047e8001e00900000004000c200dd00c00e210045
:1047f8000080400090009000100078001e02900099
:104808004222dd006123b900b4808000c5808000a9
:104818000602420087824a000403be00c604b000b4
:104828000780b0000202be000001be000600be0004
:104838006f0b07001e0090000000e80010079800aa
:104848001e009000e50f50008cff340051fa29003b
:104858004e009000eaf207000000e00077003a00fe
:104868000000eb0020079800710037002e00900030
:1048780000004000000378002e009000e600b90018
:10488800de00900000804000104078000000fb002f
:10489800cf80de00c001dd00020020002e00900065
:1048a800e600b9000000e800de009000008040004b
:1048b800104078000002fb00cfa2de004828dd008f
:1048c800c820de00810070004820dd000001710072
:1048d800818171002e009000e600b9000080e80098
:1048e800de00900000804000104078000000fb00cf
:1048f800cf80de000000710081807100c231dd00d0
:10490800c20e2100028141000089be002e009000e5
:10491800000040000003e8002e009000e600b90007
:1049280063004000de0090000080400010407800e6
:104938000000fb00cf80de00c001dd000200200087
:104948002e009000e600b90064004000de009000f0
:1049580000804000104078000002fb00cfa2de007b
:104968004828dd00c820de00810070004820dd00f6
:1049780000017100818171002e009000e600b900ed
:1049880065004000de009000008040001040780084
:104998000000fb00cf80de00000071008180710004
:1049a800c231dd00c20e2100028141000089be0033
:1049b8002e009000000040000000e800c200dd006a
:1049c800c00e210000804000100178009001900086
:1049d8002e00900000004000c200dd00c00e210043
:1049e8000080400090009000100078002e02900097
:1049f8004222dd006123b900b4808000c5808000b8
:104a08000602420087824a000403be004606b00040
:104a18000780b0000202be000001be000600be0012
:104a2800f30a07002e0090000000e8002007980015
:104a38002e009000e70f50008cff3400b1fa2900d7
:104a48004e0090006ef207000000e00077003a0088
:104a58000000eb0030079800710037003e0090001e
:104a680000004000000378003e009000e600b90016
:104a7800de00900000804000104078000000fb003d
:104a8800cf80de00c001dd00020020003e00900063
:104a9800e600b9000000e800de0090000080400059
:104aa800104078000002fb00cfa2de004828dd009d
:104ab800c820de00810070004820dd000001710080
:104ac800818171003e009000e600b9000080e80096
:104ad800de00900000804000104078000000fb00dd
:104ae800cf80de000000710081807100c231dd00de
:104af800c20e2100028141000089be003e009000e4
:104b0800000040000003e8003e009000e600b90005
:104b180063004000de0090000080400010407800f4
:104b28000000fb00cf80de00c001dd000200200095
:104b38003e009000e600b90064004000de009000ee
:104b480000804000104078000002fb00cfa2de0089
:104b58004828dd00c820de00810070004820dd0004
:104b680000017100818171003e009000e600b900eb
:104b780065004000de009000008040001040780092
:104b88000000fb00cf80de00000071008180710012
:104b9800c231dd00c20e2100028141000089be0041
:104ba8003e009000000040000000e800c200dd0068
:104bb800c00e210000804000100178009001900094
:104bc8003e00900000004000c200dd00c00e210041
:104bd8000080400090009000100078003e02900095
:104be8004222dd006123b900b4808000c5808000c6
:104bf8000602420087824a000403be004608b0004d
:104c08000780b0000202be000001be000600be0020
:104c1800770a07003e0090000000e800300798007f
:104c28003e009000e70f50008cff3400380a070060
:104c38000080fa00000006002200fa00881f7800b1
:104c480072fd07000000eb00000f7800320037000b
:104c58001e007800e304b9001e0078000000400040
:104c68006101b900b0808000c1808000020040006e
:104c780083804800430a07004008de00804078002f
:104c88004002210008004000014878001e0078001a
:104c9800e300b9000004e8001e00780000004000ae
:104ca8006101b900b0808000c1808000020040002e
:104cb80083804800330a07004809dd004800de0009
:104cc80000007100c808de00804078004002210022
:104cd80008004000014878001e007800e300b90091
:104ce8000084e8001e007800000040006101b9005f
:104cf800b0808000c18080000200400083804800ae
:104d0800200a070080407800400221000800400087
:104d1800014878001e0fe8001e007800ff0f5000c1
:104d2800cbff34000000eb00100798002900370083
:104d38001e009000000040000000e8004102210031
:104d480000804000104078000004e00002003a00b3
:104d5800e004200001003700600420009e0090005d
:104d6800818040004202210081004100914078008a
:104d78000181fb00e4004700801f7800821f780053
:104d88001e019000821f780010fb2900801f780008
:104d9800010078008df10700e887570040062000e1
:104da800fffc0700640047000b0407001e0090008a
:104db8000000e800630060000000e00002003a0024
:104dc800f0fb2900040407001e0090000000e80022
:104dd800100798009e009000f0022000808f50007d
:104de800d3ff34004f0478000080fa00000006006a
:104df8002800fa00881f780004fd07000000eb0077
:104e0800000f7800380037001e007800e304b9006e
:104e18001e007800000040006101b900b0808000e9
:104e2800c180800002004000838048004004b00038
:104e38000180b000d30907004008de0080407800f8
:104e48004002210008004000014878001e00780058
:104e5800e300b9000004e8001e00780000004000ec
:104e68006101b900b0808000c1808000020040006c
:104e7800838048004004b0000180b000c1090700e9
:104e88004809dd004800de0000007100c808de00a7
:104e98008040780040022100080040000148780066
:104ea8001e007800e300b9000084e8001e007800c6
:104eb800000040006101b900b0808000c18080001e
:104ec80002004000838048004004b0000180b00028
:104ed800ac0907008040780040022100080040002b
:104ee800014878001e0fe800f00220009e007800bc
:104ef800808f5000c4ff340020fc2900b60307004f
:104f08000000eb00100798000b0037004102210059
:104f18001e0090000080400010407800804078001b
:104f28001e0090006a004000017778001e00900083
:104f38000000e800100798001e009000eb0f5000da
:104f4800f2ff34006a004700a303070050fd290060
:104f5800a1030700c0002000200798000b003700bd
:104f68002e0090006c00500042022100ae0090001c
:104f780081004100914078006a0040000177780084
:104f88002e0090000000e80020079800ae00900076
:104f9800f0022000808f5000f1ff34006a004700c3
:104fa8008d03070040ff29008b0307000003200042
:104fb800300798000b0037003e0090000003b10056
:104fc80042022100be00900081004100914078001b
:104fd8006a004000017778003e0090000000e80079
:104fe80030079800be009000f0052000808f500028
:104ff800f1ff34006a00470077030700b0012a0078
:105008007503070000062000400798000b003700d2
:105018004e0090000006b10042022100ce00900030
:1050280081004100914078006a00400001777800d3
:105038004e0090000000e80040079800ce00900065
:10504800f0082000808f5000f1ff34006a0047000c
:10505800610307004f0478000080fa000000060092
:105068000e00fa0000002300011020009709070035
:10507800200798003107980050052000a10a200059
:105088001e0907002e009000be0090004a09070084
:10509800004f98000e4890000004a2000004e000b1
:1050a8000100320055fc07006000b800008fbe0008
:1050b8001700370024002000050020003e014200b0
:1050c800ae814a002e009000be0090003e024000d3
:1050d800ae8248000400be000202be001e01780035
:1050e8009e01900042090700004f98000e4890006a
:1050f8000004a2000004e000010032003ffc0700a9
:1051080042002000030020001e0f41005e97490066
:10511800f07f2000010020001e0178009e01900011
:10512800800f5100818f5900e2ff3600f808070010
:105138006000b800008fbe00120037002e009000fb
:10514800be0090003e024000ae8248000400be004f
:105158000c09070050079800610798005e0090004e
:10516800ee009000be0f5000ae8f580001003200d4
:1051780024fc070022002000030020001e0f41002d
:105188005e974900f07f2000010020001e01780092
:105198009e019000800f5100818f5900e7ff360073
:1051a8000080fa00000006000000fa000080fa0003
:0451b80000000600ed
:020000040000fa
:1051bc000800fa00300798000000eb00000f7800a0
:1051cc000000eb0010079800120037001e00900042
:1051dc00be009000008040009040780000c2b300f8
:1051ec0080cf5000080032001e009000be009000de
:1051fc000080400090407800602e21001e0040008e
:10520c00014878001e0fe8001e0090000000e80026
:10521c00100798001e009000be0090000080400017
:10522c00104078000004e000030032001e007800fb
:10523c00fe0f5000e5ff3600602e21001e004000de
:10524c008040eb00014878000000eb00200798003c
:10525c001d003700612e21002e00900000804000c0
:10526c009040780000c6b30080cf5000130034008b
:10527c00612e21002e0090000080400090407800ac
:10528c00a0c7b30080cf50000c003c00612e210061
:10529c002e00900000804000104078008040780084
:1052ac0000ceb30000c0400080407800622e210088
:1052bc002e00900000004100014878002e00900064
:1052cc000000e80020079800612e21002e009000bd
:1052dc0000804000104078000004e000ddff3a0040
:1052ec00602e21009040780030c5b30080cf500074
:1052fc0008003a00702e21009040780040c5b300a1
:10530c0080cf500003003a00602e21005b000700a4
:10531c0017003700602e21009040780010c4b300b5
:10532c0080cf500008003a00702e21009040780089
:10533c0040c5b30080cf500003003a00602e21001e
:10534c00ce0107000a003700602e21009040780043
:10535c0000c3b30080cf500003003a00602e210040
:10536c00ec01070002003700f0c3b3008d02070008
:10537c00d0c0b3008b020700e0c3b3008902070062
:10538c000080fa00000006000400fa0010079800e4
:10539c000000eb00000f7800110037001e007800b1
:1053ac009e0090000080400090407800f0c2b30056
:1053bc0080cf5000070034001e0078009e00900043
:1053cc00008040009040780090c3b30080cf500024
:1053dc000200340010c0b300080037001e0fe800b4
:1053ec001e0078009e009000008040001040780065
:1053fc000004e000e9ff3a000040eb000080fa00f6
:10540c00000006000400fa00100798000000eb00f2
:10541c00000f7800100037001e0078009e009000ee
:10542c000080400010407800ff4f5000070034000f
:10543c001e0078009e009000008040009040780094
:10544c00f0c7b30080cf500002003a0010c0b30088
:10545c00080037001e0fe8001e0078009e00900028
:10546c0000804000104078000004e000eaff3a00a1
:10547c000040eb000080fa00000006001800fa0063
:10548c00300f98005200200061042a003e08900062
:10549c00e5ef07000000e00029003a003e0890000c
:1054ac00650f40001e007800b7ff07000004e00005
:1054bc0004003200c0042a000040780039020700c2
:1054cc006c013700a20020008000eb001e00780069
:1054dc001bf0070010079800210798001e00900091
:1054ec00ae009000e00f5000e08f5800100032002a
:1054fc001e019000ae019000f0ff2f000100200073
:10550c00800f5100818f590009003e001e01900050
:10551c00ae0190000280880013808800f0c4b300b4
:10552c0020020700b0c4b3001e020700510137006f
:10553c00c0042a00004078001a0207004d01370011
:10554c0042002000e1042a003e089000b6ef07005c
:10555c000000e0004c003a003e089000640040005f
:10556c00300798003e00900087ff07000004e00021
:10557c0004003200c0042a00004078000902070031
:10558c003c013700a20020008000eb003e009000a0
:10559c00ebef0700608088007180880062808000db
:1055ac00738080006002200001002000800f5100f9
:1055bc00818f59003100360062808000738080003a
:1055cc000068290081092000800f5100818f59004b
:1055dc002a003e006080800071808000620107001c
:1055ec0020808800318088002280800033808000f9
:1055fc003000200001002000800f5100818f5900e5
:10560c001b003e0030052a00f2010700800c200030
:10561c00410207006080800071808000410107001a
:10562c00800c20003c02070070052a00e9010700ed
:10563c009a01070008f0b70008d0bf00ed4f5000ea
:10564c0007003a0060062a00e20107006080800033
:10565c00718080008080880091808800050137006f
:10566c0080808000918080002e01070001013700ae
:10567c00f0c3b300cb010700fe003700f0c3b3004a
